:1010000000000420057E03002D7E03002F7E0300D8
:10101000317E0300337E0300357E030000000000B4
:10102000000000000000000000000000377E030008
:10103000397E0300000000003B7E03003D7E03007C
:10104000DD4F0300593903003F7E03003F7E03005C
:101050003F7E03003F7E03003F7E03003F7E030090
:101060003F7E03003F7E03003F7E03003F7E030080
:101070003F7E0300D16F00003F7E03003F7E0300F0
:101080003F7E03003F7E03003F7E03003F7E030060
:101090003F7E03003F7E03003F7E03003F7E030050
:1010A0003F7E03003F7E03003F7E03003F7E030040
:1010B0003F7E03003F7E03000000000000000000B0
:1010C0003F7E03003F7E03003F7E03003F7E030020
:1010D000C96200003F7E03003F7E03009D5E030067
:1010E0003F7E03003F7E03003F7E030000000000C0
:1010F000000000003F7E0300000000003F7E030070
:1011000000000000000000000000000000000000DF
:1011100000000000000000000000000000000000CF
:1011200000000000000000000000000000000000BF
:1011300000000000000000000000000000000000AF
:10114000000000000000000000000000000000009F
:10115000000000000000000000000000000000008F
:10116000000000000000000000000000000000007F
:10117000000000000000000000000000000000006F
:10118000000000000000000000000000000000005F
:10119000000000000000000000000000000000004F
:1011A000000000000000000000000000000000003F
:1011B000000000000000000000000000000000002F
:1011C000000000000000000000000000000000001F
:1011D000000000000000000000000000000000000F
:1011E00000000000000000000000000000000000FF
:1011F00000000000000000000000000000000000EF
:101200000348044B834202D0034B03B11847704795
:101210003C0100203C010020000000000548064B76
:101220001B1AD90F01EBA301491002D0034B03B1E4
:10123000184770473C0100203C01002000000000DE
:1012400010B5064C237843B9FFF7DAFF044B13B10E
:101250000448AFF300800123237010BD400100203B
:1012600000000000F8C6030008B5054B1BB1054996
:101270000548AFF30080BDE80840FFF7CFBF00BFCF
:101280000000000044010020F8C60300A3F5803AE6
:10129000704700BF174B002B08BF134B9D46FFF74D
:1012A000F5FF00218B460F461348144A121A37F0F7
:1012B000B5FD0E4B002B00D098470D4B002B00D0F6
:1012C00098470020002104000D000D48002802D09E
:1012D0000C48AFF3008037F0B9FD2000290000F082
:1012E00013F837F027FB00BF0000080000000000E3
:1012F000000000000000042040010020641F0120C5
:10130000000000000000000070B505460E463146A2
:10131000284605F067FD06F01FF9044600F018F8AE
:1013200005F08AFD18B1204606F01DF9EFE72046CA
:1013300006F008FB204605F085FDF1E710B50C46E8
:1013400006F078F8204610BD00F0F7B800F0ECB8D1
:1013500010B5044606F050F820460249BDE810409A
:1013600000F048B83D13000038B50446154600F0BB
:101370008BF904F6DA13C4F8D43904F58E504FF41F
:101380000063A4F8D83904F6D411C4F8D0591C303D
:101390002EF05DFD04F58F5004302EF0B9FD04F5FC
:1013A0008F5104F580531C31881DC3F8FC0140F2B5
:1013B0001450A3F800020C48C3F81C07002204F5DF
:1013C0008F50A3F8F82183F81827C3F8202704309A
:1013D0002346064A2EF0A3FD201D054922462EF085
:1013E0006EFE204638BD00BF011500001516000036
:1013F0002514000008B50A4601460348FFF7B4FF6C
:10140000BDE8084000F0F4B960010020D0F8D4290C
:1014100000F6DA139A4204D100F5B8501C3007F0F8
:10142000BFBC7047FFF7F2BF2DE9F041044600F55D
:101430008055201D2EF05EFF95F8F83110B1022B7B
:101440003AD00FE0012B4CD0022B35D0002BF0D13D
:10145000204600F0E9F908B104F0AEFF204600F0A4
:10146000EDF948B1D4F8D41904F6DA10091A89B2A2
:10147000002940D1BDE8F08104F58E501C302EF0DB
:10148000EAFC0028EED1201D2EF0C9FF012385F8CB
:10149000F831201D2EF0DAFFF0B194F8CC70201D49
:1014A0002FF0EBF82FB194F8CC3013B9012385F865
:1014B0001837022385F8F83104F58E501C302EF0D1
:1014C00001FD0028CED195F8183785F8F801002BDA
:1014D000AFD085F81807ACE7201D2EF0C0FF85F8C7
:1014E000F90104F58E5095F8F9111C302EF0BCFC72
:1014F0000028CED0B6E7D4F8D039BDE8F04118477F
:1015000008B500F075F9BDE80840FFF78DBF00F69B
:10151000DA13C0F8D4394FF40063A0F8D83900F5D5
:10152000B8501C3007F03CBC08B500F061F918B1A8
:10153000BDE80840FFF7EBBF08BD38B504460D46CF
:1015400000F056F940B100F58F502A46214604308C
:10155000BDE838402EF0E8BC38BD00002DE9F04170
:101560000C46A0B01746984600F072F92346194A77
:101570008021684637F0A2FA684637F0AEFC69462B
:101580000246002001F06CF96E460024444501D06B
:10159000292C13D124B204EB44040F490DEB0400B1
:1015A00037F085FC684637F098FC0DF10101421ECA
:1015B000002001F055F920B0BDE8F081A4EB8401D2
:1015C0003B5D064A3046803137F078FA0134033605
:1015D000DCE700BFD89E0300F29E0300EC9E0300F0
:1015E00038B500F5805400F59055D4F8FC3102353B
:1015F0005B1B9BB251B91A46294600F06EFF40F2C0
:101600001453C4F8FC51A4F8003238BD2A46FFF741
:10161000A5FFF4E7FFF7E4BF2EF0F1BF1C282ED89A
:10162000DFE800F00F3011132D1517192D2D2D2D7A
:101630001B1D1F212D2D2D272D2D2D25232D2D2932
:101640002B00002070470E2070470B2070470C20A5
:10165000704709207047032070470220704704201C
:1016600070471120704712207047132070471420D4
:10167000704716207047172070471820704700F5F4
:1016800080407047012070472DE9F041074604462D
:1016900047F8041B4FF4006200F2091138462EF09F
:1016A000F3FC0025C4F8847004F1880304F1A80257
:1016B000C3E9005508339342FAD1C4E92B55A4F885
:1016C000A85004F1B4002FF034F8414A4149C4F85D
:1016D000D050C823C4E935234FF6FF73A4F8DC309B
:1016E0003D4B0968C4F804114FF00006C4E93835D1
:1016F000002200234FF0040804F51D61C4E93C23D7
:10170000C4E93E23C4F8E85084F80851A4F80A5903
:10171000A4F88459C4F88859C4F89459C4F898595D
:10172000C4F89C59C4F8A059C4F8A459C4F8A859DD
:10173000C4F8AC59C4F8B059C4F8B459C4F8B8598D
:10174000C4F8C05984F8CC6084F8008184F88769B3
:1017500084F8BC6941E90223204B21491C602246E0
:1017600038462EF0AFFC7822002104F60C1037F03A
:1017700055FB04F68C1084F8866984F8096906F034
:101780009DF822461749206805F0F1FE22462068A0
:10179000154905F024FF25462068012105F029FFA1
:1017A0002068414605F0D3FE55F8F00B0F4906F0CE
:1017B00008FB77220021284604F0EAF904F1E00052
:1017C00007F0EEFA204604F0D9F92046BDE8F08192
:1017D00000F8FF0790C30300E11B000088180020F9
:1017E0004F1C000001560000955400006B2A0000B9
:1017F000014B1868704700BF881800200023C0F80C
:10180000AC39C0F8B039C0F8B439C0F8B839C0F84C
:101810009439C0F89839C0F89C39C0F8A039C0F89C
:10182000A439C0F8A839704790F80031042B1ABFCA
:1018300090F8CC0080F001000020704790F8003153
:10184000012B06BF90F8CC0080F00100002070470B
:10185000D0F8AC390133C0F8AC3970472DE9F84302
:10186000994690F888390D1E0446904608BF7025A9
:1018700013B10D20BDE8F8832946F03004F0FEF9DD
:101880000028F6D194F80A2994F80B399A420BD023
:101890000B22002104F1F00004F07AF904F1E000D9
:1018A00007F07EFA0320E5E704F184072B460622C1
:1018B000802138462FF0A2F960B9D4F884001FFACD
:1018C00089F241462EF0AEFE20B938462FF079F964
:1018D0000028CFD00328CDD1DAE700000138042852
:1018E0009ABF024B185C0020704700BFEBAA0300B0
:1018F0002DE9F84311F00F0E01F00F0708D1022A6D
:1019000004D11A467146F03004F042F900200DE08F
:1019100090F80B6990F80A89A6EB08040E2C07DDF5
:10192000F0300E22002104F033F90320BDE8F883E3
:10193000C1F301140519214695F8095975453FD1A0
:1019400031460E2940D801F2211100EBC10144F0CB
:10195000400402F0030244EA870444EA02248A882D
:1019600024F08004A40522F45F7222F00302A40D87
:1019700014438A688C8063F3170201368A6080F80A
:101980000B69C3E70F3DEDB20E2DFBD805F2211513
:1019900000EBC50595F804C01CF0400F0CD00CF00E
:1019A0000309494508D1CCF38309F14504D12CF052
:1019B000400C85F804C0C3E708F101085FFA88F815
:1019C0004645BDD94546DFE70F39C9B2B9E71346E9
:1019D0000222FFF78DBF38B511F0300F00F18404FB
:1019E00008BFC0F8D02000231546204606222FF05D
:1019F00005F9034650B9294620462FF04EF8034614
:101A000020B92046BDE838402FF0DBB8184638BD75
:101A10002DE9F74304460F4668461146914698461D
:101A200000F04EFFDDE9005635B9F10704D4B8F1F6
:101A3000000F1AD1424619E04B460622394604F1FE
:101A400084002FF0DBF8C0B97310F20748BFE358E9
:101A500004EB660048BF5D59A84770B904F18400E3
:101A600003B0BDE8F0432FF0ACB80D223946204654
:101A700003B0BDE8F043FFF7AEBF03B0BDE8F083AD
:101A800070B50446002694F80A5994F80B39AB4215
:101A900001D1002033E005F2211504EBC5021379D2
:101AA000590616D404EBC5052B7923F040032B719E
:101AB00094F80A390133DBB20F2B84F80A39E2D1EA
:101AC00094F80B3984F80A690E2B20D884F80B3966
:101AD000D9E7C3F30100C3F383015379926841EA64
:101AE000001103F0030361F07F01022BC9B2C2F3BE
:101AF000170205D12046FFF76EFF0028D2D070BD37
:101B0000B3FA83F35B092046FFF782FFF5E70F3B4B
:101B1000DBB2D9E72DE9F84F044603F07BFDD4E9A9
:101B20003C32134304D1012384F8BC39BDE8F88F5B
:101B300004F1F00004F02AF8284F814600254FF008
:101B40000108EBB24B45EED2D4E93C30C5F120019F
:101B5000A5F12002EB4000FA01F10B4320FA02F25A
:101B6000134313F0010FC5F1200AA5F1200602D19D
:101B70000C370135E5E73A682ABBD7F804B0BBF16A
:101B8000770F06D1206804F0FDFB082898BF00F10C
:101B9000700B5A4680212046FFF71DFF0028C2D156
:101BA000D4E93C3208FA06F628FA0AFA46EA0A06A6
:101BB00008FA05F123EA010322EA0602C4E93C32ED
:101BC0001343D5D1AFE794F8BC39002BE8D00123FB
:101BD00080212046FFF71CFFE0E700BF34B7030079
:101BE000014B1868FFF796BF8818002090F8CC309A
:101BF00010B5044633B1D0F804318B4204BF002342
:101C000080F8CC302046FFF73BFFF8B994F8081174
:101C100099B101230C222046FFF7FAFEB0B994F8DF
:101C2000003184F80801042B07D0201D2EF060FB42
:101C30000123C4F8040184F8CC30204603F0EDFB06
:101C400020B92046BDE81040FFF764BF10BDFFF784
:101C5000CDBFF8B505468430069EBDF81C702EF049
:101C6000CDFF034668B9D5F884003A4631462EF0D8
:101C7000D9FC034628B905F18400BDE8F8402EF0F0
:101C8000A0BF1846F8BD2DE9F04F042B87B00446DD
:101C90000F46904609D0052B39D00D2239462046F3
:101CA000FFF795FE07B0BDE8F08F114604A800F0DD
:101CB0001FFEDDE904654FF0070A05F0010B16B9B8
:101CC000BBF1000FE9D004F1B4002EF06AFE0DF173
:101CD0000A0203A904F1B4002EF00DFE04F1B400D1
:101CE0002EF066FE002384F8883904EB65006B1043
:101CF000BBF1000F01D0E3589E59B04701230546C0
:101D000084F8883960B1FFF789FC0246C6E71146BE
:101D100004A800F0F9FD4FF0080ADDE90465CCE7FE
:101D2000BDF80A300193039B00935246434639465F
:101D30002046FFF78EFF0028B4D02A46AEE708B54C
:101D40000022FFF744FE08BD37B50223B0F8BA20E1
:101D50008DF80730B0F8BC309A42044616D00DF129
:101D60000701B4302EF0FDFC0546206805F0FDFBB0
:101D70002068002105F025FF2068002105F000FC07
:101D8000034B002228461A6003B030BD0025ECE763
:101D900088180020D0F8840000212EF030BC10B547
:101DA0000446006805F07BFC0146D4F88400BDE8D9
:101DB0001040FFF731BC13B50023044601A9B4302D
:101DC00001932EF04DFD20B99DF80410206805F018
:101DD0006BFC02B010BD10B50446006805F0FFFCB6
:101DE000410001F0FE01D4F88400BDE81040FFF787
:101DF00013BC13B5002304460DF10701B4308DF870
:101E000007302EF0AEFC58B99DF8073023B1013BE6
:101E1000012B07D9072003E00146206805F0E6FC06
:101E200002B010BD0121F8E713B504460DF107011A
:101E3000B4302EF0A6FC20B99DF80710206805F0FC
:101E40000AFD02B010BD10B5044654F8840B05F02D
:101E50007DFC01462046BDE810402EF0B6BD13B50E
:101E600004460DF10601B4302EF0AAFC20B9BDF8ED
:101E70000610206805F06FFC02B010BD10B50446D6
:101E8000006805F044FC08220146D4F88400BDE84F
:101E900010402EF0C7BB13B50822044601A9B43088
:101EA0002EF0F5FC18B90199206805F034FC02B059
:101EB00010BD10B5044654F8840B05F070FC0146C3
:101EC0002046BDE810402EF080BD90F88B390344C9
:101ED000D0F8840093F886192EF091BB13B5002337
:101EE00004460DF10701B4308DF807302EF049FC9F
:101EF00030B994F88B391C449DF8073084F8863942
:101F000002B010BD7FB5054602A9B4302EF084FCA6
:101F1000044638BB01A905F1B4002EF065FC044667
:101F200000BB0DF1030105F1B4002EF01AFC0446CC
:101F3000C0B9286804F052FEDDE90223904271EB3B
:101F4000030612D2121A63EB01036FF001019142F2
:101F500074EB030309D3019B9DF80310286804F078
:101F6000CEFE0446204604B070BD0724FAE710B543
:101F70000446006804F082FE0146D4F88400BDE8FF
:101F80001040FFF749BB10B50446006804F07CFE22
:101F90000146D4F88400BDE81040FFF73DBBF8B51A
:101FA00005460F460024012606FA04F33B4204D1FD
:101FB0000134202CF8D10020F8BDD5F88400E1B21E
:101FC000FFF72AFB0028F3D0F6E7F7B50023044615
:101FD0000D460127B4F8BA202B60B4F8BC309A4201
:101FE00002D1002003B0F0BD0DF1070104F1B400EF
:101FF0002EF0B7FB0028F5D19DF807301F2B04D831
:102000002A6807FA03F31343E4E70720EAE7D0F866
:10201000D410FFF7C4BF13B5002301A904460193F0
:10202000FFF7D3FF10B9019BC4F8D43002B010BD44
:10203000B0F8D81084302EF0C8BC00F1D801B4300C
:102040002EF0BEBB10B50446006805F0EEFB80B96B
:10205000206805F0F5FB70B9206805F0DCFD00286C
:102060000CBF00210321D4F88400BDE81040FFF725
:10207000D3BA0121F7E70221F5E7000010B586B0D9
:10208000044600230DF11701B4308DF817302EF0FF
:1020900068FB40B99DF81700032803D8DFE800F07B
:1020A00003050F190C2006B010BD0094114BB4F8B5
:1020B000D820D4F8D410206805F0B2FBF3E70094E0
:1020C0000D4BB4F8D820D4F8D410206805F0B3FB39
:1020D000E9E7084B0294019394F8DB30009394F8FD
:1020E000DA30B4F8DC20D4F8D410206805F080FD94
:1020F000D9E700BF49530000AF5300002DE9F84372
:102100000546F03003F042FDDFF85090064600240B
:102110004FF00C0805F18407E3B29E4201D800207D
:1021200019E0D5E93E30C4F12001A4F12002E340DA
:1021300000FA01F10B4320FA02F21343DB0701D44A
:102140000134E9E708FB04F3384659F803102EF090
:10215000A4FC0028F4D0BDE8F88300BF34B7030026
:10216000F7B500230022C0E93E23044600F1F00742
:10217000B4F8BA20B4F8BC309A4203D100252846FE
:1021800003B0F0BD01A904F1B4002EF069FB0546CF
:1021900028B901990122384603F02EFDE8E7012312
:1021A00041F2080280212046FFF732FCE7E713B531
:1021B000044601A9B4302EF053FB28B9019901223D
:1021C00004F1F00003F018FD02B010BD13B5044691
:1021D00001A9B4302EF044FB28B90246019904F15C
:1021E000F00003F009FD02B010BDD0F8D01084302B
:1021F0002EF053BC10B500F18404042120462EF0CB
:102200004CFC28B920460321BDE810402EF045BC07
:1022100010BD032184302EF040BC002184302EF00C
:102220003CBC10B500F18404052120462EF035FC9D
:10223000D0BB0C2120462EF030FCA8BB1821204634
:102240002EF02BFC80BB202120462EF026FC58BB14
:10225000352120462EF021FC30BB362120462EF0C1
:102260001CFC08BB0E2120462EF017FCE0B94FF4F1
:10227000027120462EF011FCB0B94FF401712046D6
:102280002EF00BFC80B940F20A2120462EF005FC0E
:1022900050B9302120462EF000FC28B920463121CB
:1022A000BDE810402EF0F9BB10BD10B5044605F096
:1022B00063F9014604F18400BDE810402EF028BC0B
:1022C000D0F884000121FFF7A7B9D0F884000021DD
:1022D000FFF7A2B9D0F884000421FFF79DB90C20C4
:1022E000704713B504466946006805F029FAD4F82A
:1022F0008400082269462EF095F902B010BD022133
:1023000084302EF09CBC90F80011D0F88400FFF7C8
:1023100083B9000073B504460E46B4300DF10701D1
:102320002EF01FFA054690BB9DF80730022B1FD0F8
:1023300003D9DA1E012A88BF032384F80031002361
:1023400084F808310C22012331462046FFF760FB58
:1023500094F80031042B17D060B9201D2DF0C8FF70
:102360000123C4F8040184F8CC30284602B070BDC3
:102370000123E2E70A4B1B68C4F80431012384F807
:10238000CC3084F80861F0E70028EED0F9E7FFF7D9
:1023900045F9314602462046FFF71DFB0546E4E7B6
:1023A00090C3030073B504460D46684611461646B1
:1023B00000F092FADDE9003000F0010283B97AB949
:1023C0000C2E06D00D2229462046FFF700FB02B056
:1023D00070BD2946204602B0BDE87040FFF79ABFA5
:1023E000002184F88819411004EB60000AB162589A
:1023F000D3589847012284F8882938B933462946AA
:10240000204602B0BDE87040FFF772BAFFF706F948
:102410000246D8E773B5002304460D46B43001A93F
:10242000164601932EF01CFA024640B1FFF7F6F86B
:10243000294602462046FFF7CAFA024604E0032E68
:1024400015D004D8022E0CD0104602B070BD331F38
:10245000012BF9D8019A334629462046FFF713FC91
:10246000EBE7019B29462046FFF742FAE5E7019A90
:1024700029462046FFF796FFDFE737B504460D46AD
:10248000B43001A92EF0ECF970B9019A0B2A1CD8CE
:10249000DFE802F0060C111111111B1B1B21162184
:1024A00029462046FFF74BFC03B030BD29462046A5
:1024B000FFF74AFCF8E729462046FFF7ABFFF3E7B2
:1024C0002946204600F0EEFEEEE70522294620468A
:1024D000FFF77DFAE8E70C20E6E773B50123044631
:1024E00080F888390026B4308DF807602EF02EF978
:1024F000042384F8003184F8CC600DF1070104F165
:10250000B4002EF02EF998B99DF907309DF8071008
:1025100083420DDAD4F8B0390133C4F8B039C1F3CD
:10252000011384F88B3943B106222046FFF753FA92
:10253000002384F8883902B070BD2368002BF3D0E3
:102540002046FFF79AFF38B1FFF768F89DF80710AB
:1025500002462046FFF73BFA94F80B2994F80A3913
:102560009A4202D02046FFF78BFA94F88B299DF807
:102570000730224403F00F0392F8091931B1994250
:102580001EBFD4F8B4190131C4F8B4190F2B14BF0D
:102590000133012382F80939CAE70000F8B505467E
:1025A000F03003F0F3FA0A4C074600268435F3B204
:1025B0009F4201D800200AE0237A13B90C34013677
:1025C000F5E7216828462EF068FA0028F6D0F8BD15
:1025D00034B7030010B50446006804F04BF8C1B2EC
:1025E000D4F88400BDE81040FFF716B810B50446D3
:1025F000006804F0CFFAC1B2D4F88400BDE81040FE
:10260000FFF70AB810B50446006805F048F890B125
:102610000A280AD80A494FF4FA6210FB021104F1A1
:102620008400BDE810402EF0DFB9192805D805490F
:1026300041F28832F1E70449F1E70021EFE700BFFA
:1026400040CB0D00B0DB2300CC3F0D0013B504469A
:102650000DF10701006804F083F838B99DF8071000
:10266000D4F88400FEF7D8FF02B010BDFEF7D6FF05
:10267000014604F184002EF0E2FAF5E713B50023D9
:1026800004460DF10701B4308DF807302EF08CF8B8
:1026900020B99DF90710206804F076F802B010BD4B
:1026A00013B504460DF10701006804F04FF838B97E
:1026B0009DF80710D4F88400FEF7AEFF02B010BDFD
:1026C000FEF7ACFF014604F184002EF0B8FAF5E7FE
:1026D00013B5002304460DF10701B4308DF807301F
:1026E0002EF062F820B99DF90710206804F01EFB57
:1026F00002B010BD13B504460DF10701006804F0E7
:102700005BF838B99DF80710D4F88400FEF784FF11
:1027100002B010BDFEF782FF014604F184002EF0E6
:102720008EFAF5E713B5002304460DF10701B43026
:102730008DF807302EF038F820B99DF90710206881
:1027400004F044F802B010BD37B504460DF106019F
:10275000B4302EF006F868B90DF1070104F1B400A9
:102760002EF022F830B99DF907209DF80610206858
:1027700004F0EEFA03B030BD13B504460DF10601C6
:1027800054F8840B04F0FCFA30B9BDF8061020466A
:102790002EF01BF902B010BDFEF740FF01462046A7
:1027A0002EF04DFAF6E713B504460DF10601B430EC
:1027B0002EF006F820B9BDF80610206804F0ECFAF7
:1027C00002B010BDFFF7E6BAFEE710B50446006898
:1027D00005F054F8FFF782F80146D4F88400BDE80C
:1027E0001040FEF719BF37B5002300220446CDE99B
:1027F000002303F0AAFC6946054604F1B4002EF05C
:102800000BF860B9DDE90032AB4272F1000108D388
:102810005B1B62F10002C4F8C839C4F8CC2903B0CC
:1028200030BD0720FBE700F51D6353E90223843028
:102830002EF0F9B810B50446006804F051FF0146C7
:102840002046BDE81040FFF7AABB10B5044600685B
:102850000FF02CF801462046BDE81040FFF79FBB63
:102860001346064A10B40446106820B10A462146B1
:1028700010BCFEF7F3BF0D2010BC70478818002075
:10288000F0B5013A04460C26002090420DD3704367
:102890000A18095899420BBFD2E901010023C4E983
:1028A0000001C4E900332046F0BD85186D0806FB21
:1028B00005F7CF599F4234BF681C2A46E5E7000060
:1028C00010B50B4604460349A222FFF7D9FF204664
:1028D00010BD00BFD4AE030010B50B46044603493B
:1028E0004A22FFF7CDFF204610BD00BF5CAB0300BE
:1028F00010B50B46044603490422FFF7C1FF2046EA
:1029000010BD00BF2CAB030010B50B4604460349B5
:102910000522FFF7B5FF204610BD00BFF0AA030057
:102920002DF06DBE2DF06BBEF8B5054691F829006F
:102930000C46C0F38002C0F3400100F0010000F03B
:10294000E3FB082207462146D5F884002DF06AFEF5
:102950000346B8BB218B05F184002EF036F8034600
:1029600080BBA16805F184002EF03EF8034648BB09
:10297000E16805F184002EF037F8034610BB217F93
:10298000D5F88400FFF7CCFF0346D8B9617FD5F8AE
:102990008400FFF7C5FF0346A0B9A17FD5F88400E6
:1029A000FFF7BEFF034668B9D5F884003946FFF744
:1029B000B7FF034630B9E17FD5F88400BDE8F840A1
:1029C000FFF7AEBF1846F8BD2DE9F843044616469A
:1029D00004292BD8DFE801F02C252A2E030041F230
:1029E0000B550827294604F1F00003F047F9E8B930
:1029F0002B463A46802104F184002EF0FFF8F8B10E
:102A0000522D02D1012384F8893904F1F0000B2200
:102A1000002103F0BDF804F1E000BDE8F84306F042
:102A2000BFB9082796F831301B0707D5BDE8F883F2
:102A30000727F7E741F20B550727D3E75225D1E7E0
:102A4000522D204606F108010AD1FFF76DFF00283C
:102A5000D8D104F184002EF0B4F80028E6D0CFE7F6
:102A600000F058FB0028F4D0CFE738B50D460446F7
:102A7000FEF7BEFE2A462146BDE83840FFF7A4BF58
:102A800010B50446006805F003F90146D4F8840047
:102A9000BDE81040FFF744BF10B50446006805F0DC
:102AA0005FF80146D4F88400BDE81040FFF738BF56
:102AB000F0B504468DB0064654F8840B05F0CDF809
:102AC00000250746A9B28F4201D8002018E03068DF
:102AD0006A4605F02EF908B10135F3E79DF8293073
:102AE0001B07F9D420462EF02BF848B9694630462A
:102AF000FFF71AFF20B920462EF041F80028EBD04E
:102B00000DB0F0BDF0B5054687B0044655F8840B0E
:102B100005F02CF900260746206801AAF1B205F05D
:102B200027F930B10136F3B29F42F5D2002007B049
:102B3000F0BD9DF81430DB07F4D528462EF000F8E0
:102B40000028F4D1D4F88400082201A92DF06AFDF0
:102B50000028ECD1BDF80C1028462DF036FF0028D7
:102B6000E5D19DF80E10D4F88400FFF7D9FE0028B7
:102B7000DDD19DF80F10D4F88400FFF7D1FE0028B6
:102B8000D5D19DF81010D4F88400FFF7C9FE0028B5
:102B9000CDD19DF81110D4F88400FFF7C1FE0028B4
:102BA000C5D19DF81210D4F88400FFF7B9FE0028B3
:102BB000BDD19DF81310D4F88400FFF7B1FE0028B2
:102BC000B5D19DF81410D4F88400C1F34001FFF78B
:102BD000A9FE0028ABD128462DF0D1FF0028A1D0B6
:102BE000A5E72DE9F041054692B00646002455F8C8
:102BF000840BADF8064005F030F807461FFA84F85C
:102C0000474501D8002034E0306806AA414605F067
:102C100090F808B10134F1E79DF841301B07F9D471
:102C200028462DF08DFF20BBD6F88400082206A987
:102C30002DF0F8FCE8B9BDF8301028462DF0C5FE9F
:102C4000B8B9ADF80600306802AB0DF10602414696
:102C500005F074F828B128462DF091FF0028D9D04E
:102C600007E0D6F88400102202A92DF0DBFC002832
:102C7000E9D012B0BDE8F08110B50446006804F058
:102C8000F6FF0146D4F88400BDE81040FFF74ABEC5
:102C900013B504460DF10701B4302DF072FD20B9D3
:102CA0009DF80710206804F0E9FF02B010BD10B5D0
:102CB0000446006804F082FD0146D4F88400BDE8B3
:102CC0001040FFF72DBE37B505460DF10701B430B2
:102CD0002DF047FD044620B99DF80710286804F040
:102CE00072FD204603B030BD10B5044654F8840B85
:102CF00004F0F8FE01462046BDE810402DF008BF64
:102D000013B5044601A9B4302DF0D7FD18B90199C7
:102D1000206804F0EBFE02B010BD1FB50446694602
:102D2000006805F02FF8D4F88400102269462DF0D1
:102D300079FC04B010BD13B5002304460DF1020266
:102D400001A9B43001932DF0D6FD38B9BDF8023099
:102D5000102B05D10199206805F019F802B010BDBB
:102D60000620FBE710B50446006804F076FFC1B208
:102D7000D4F88400BDE81040FFF7D2BD13B500239E
:102D800004460DF10701B4308DF807302DF0E9FC51
:102D900020B99DF80710206804F064FF02B010BD50
:102DA00010B50446006804F091FF0146D4F8840091
:102DB000BDE81040FFF7B4BD37B5002305460DF15F
:102DC0000701B4308DF807302DF0CBFC044620B954
:102DD0009DF80710286804F07EFF204603B030BD40
:102DE00010B50446006804F090FF0146D4F8840052
:102DF000BDE81040FFF794BD37B5002305460DF13F
:102E00000701B4308DF807302DF0ABFC044620B933
:102E10009DF80710286804F07DFF204603B030BD00
:102E200010B50446006804F07AFF0146D4F8840027
:102E3000BDE81040FFF774BD37B5002305460DF11E
:102E40000701B4308DF807302DF08BFC044620B913
:102E50009DF80710286804F067FF204603B030BDD6
:102E600010B5044654F8840B04F01CFF01462046BC
:102E7000BDE810402DF0B8BD37B50023054601A9C7
:102E8000B43001932DF0B0FC044618B901992868BC
:102E900004F00DFF204603B030BD10B504460068B5
:102EA00004F00AFF0146D4F88400BDE81040FFF7A3
:102EB00037BD37B5002305460DF10701B4308DF855
:102EC00007302DF04EFC044620B99DF80710286805
:102ED00004F0F7FE204603B030BD10B5A2B00446A2
:102EE0006946006804F028FB28B96946204600F0CE
:102EF00066FD22B010BDFEF791FB014604F184008F
:102F00002DF09DFEF5E737B505460DF10701B4300C
:102F10002DF027FC044620B99DF80710286804F01E
:102F2000BCFE204603B030BD90F88A19D0F884006A
:102F3000FFF7F6BC10B500F68A110446B4302DF048
:102F400010FC30B994F88A192068BDE8104004F0EC
:102F50009ABE10BD37B505460DF10701B4302DF00E
:102F600000FC044638B99DF80710286804F0B8FE44
:102F70000D2818BF0446204603B030BD70B50026AA
:102F80008EB0CDE901660446206801AA03A904F0C9
:102F9000F4FE002840F08D8004F184002DF0D0FD77
:102FA00070BBD4F88400102203A92DF03BFB38BB82
:102FB000BDF81C1004F184002DF007FD00BBD4F80F
:102FC0008400F1B2FFF7ACFCD0B99DF81E30032BA2
:102FD00009D8DFE803F00217191B0021D4F8840098
:102FE000FFF79EFC60B904F184002DF0A9FD38B90B
:102FF0009DF81E3063B104F184002DF0C0FD08B3CC
:103000000EB070BD0121E9E70221E7E70321E5E702
:103010009DF81F10D4F88400C1F38001FFF782FCF3
:103020000028EDD1089904F184002DF0DDFC002882
:10303000E6D1D4F88400102209A92DF0F3FA002873
:10304000D9D0DDE704F184002DF07AFD0028D7D136
:103050009DF81E306BB904F184002DF090FD00281E
:10306000CED104F184002DF08AFD013600288BD0EA
:10307000C6E79DF81F10D4F8840001F00101FFF7A6
:1030800051FC0028BCD19DF81F309B074CBF014666
:10309000BDF8341004F184002DF097FC0028AFD166
:1030A000BDF8361004F184002DF08FFC0028D2D03A
:1030B000A6E70020A4E710B5044654F8840B04F0FA
:1030C000E0F901462046BDE810402DF07EBC37B542
:1030D00005460DF10601B4302DF072FB044620B90F
:1030E000BDF80610286804F0D1F9204603B030BDC1
:1030F0002DF098BA1022FFF7FBBF2DF080BA2DF00B
:103100007EBA002202F044BD42EA410242EAC00017
:10311000C0B270472DE9F84391F826700546843017
:1031200007F00108C7F340090C46C7F380072DF0EC
:1031300007FD00284CD1D5F8840008222146FFF76E
:10314000D7FF002844D1218A05F184002DF03DFCF1
:1031500000283DD1A16805F184002DF045FCB8BBE5
:10316000217FD5F88400FFF7C8FF88BB617FD5F8C1
:103170008400FFF7C2FF58BB49463A464046FFF776
:10318000C3FF0146D5F88400FFF7B7FF00BB94F8F2
:103190002610D5F88400C1F3C001FFF7B0FFB8B91D
:1031A000616905F184002DF01FFC88B9A16905F162
:1031B00084002DF019FC58B9A17FD5F88400FFF7E1
:1031C0009CFF28B905F18400BDE8F8432DF0D7BC79
:1031D000BDE8F88330B585B0044601A9006804F065
:1031E0004BF9C8B9BDF8041004F184002DF0EDFBD3
:1031F00090B9BDF8061004F184002DF0E6FB58B933
:10320000029904F184002DF0EFFB28B99DF80C1011
:10321000D4F88400FFF771FF05B030BD10B5044647
:1032200054F8840B04F0B1FA01462046BDE8104082
:103230002DF0DABB13B5044601A9B4302DF0D4FA51
:1032400018B90199206804F0A5FA02B010BD10B5B4
:103250000446006804F0A8FA0146D4F88400BDE8EA
:103260001040FFF74ABF37B505460DF10701B430EE
:103270002DF077FA044620B99DF80710286804F06D
:1032800098FA204603B030BD13B5002301A90446C7
:103290000193FEF79AFE18B90199206804F025FA07
:1032A00002B010BD70B5044600680D4604F062F926
:1032B000FEF7B4F92946034602222046BDE87040D5
:1032C000FEF716BB10B50446006804F0EEF80146A0
:1032D000D4F88400BDE81040FFF711BF10B50446D4
:1032E000006804F059F90146D4F88400BDE81040A4
:1032F000FFF705BF13B5002304460DF10701B430F5
:103300008DF807302DF03DFA20B99DF807102068A0
:1033100004F036F902B010BD10B50446006804F0A0
:1033200015FC011E18BF0121D4F88400BDE810402F
:10333000FFF7E5BE73B5002305460DF10701B43074
:103340008DF807302DF01DFA044688B928689DF8DD
:10335000076004F0FBFB001B18BF0120B04207D040
:103360009DF80730286833B1012104F02AFC044697
:10337000204602B070BD2146F7E7000010B50446B4
:10338000006804F0E3FB042896BF044B0021195C9D
:10339000D4F88400BDE81040FFF7AFBE6CB6030060
:1033A00013B50023044601A9B43001932DF058FA57
:1033B00048B9019B032B06D8DFE803F0020F070B87
:1033C000206804F0B4FB02B010BD206804F091FC4A
:1033D000F9E7206804F093FCF5E7206804F0ACFB03
:1033E000F1E710B5044654F8840B04F057FB01468E
:1033F0002046BDE810402DF08BBB13B500230446DA
:1034000001A9B43001932DF058FA18B90199206838
:1034100004F048FB02B010BD10B50446006804F08B
:10342000A8FA08220146D4F88400BDE81040FFF74E
:103430005FBE13B5002304460DF1020201A9B430AA
:1034400001932DF058FA38B9BDF80230082B05D198
:103450000199206804F091FA02B010BD0620FBE744
:103460001FB504466946006804F0D3FAD4F8840016
:1034700010226946FFF73CFE04B010BD13B50023CF
:1034800004460DF1020201A9B43001932DF033FA84
:1034900038B9BDF80230102B05D10199206804F02D
:1034A000BDFA02B010BD0620FBE710B5044654F883
:1034B000840B04F027FB01462046BDE810402DF0A8
:1034C00093BA37B5054601A9B4302DF08DF90446FD
:1034D00018B90199286804F01AFB204603B030BDE2
:1034E00010B5044654F8840B04F042FB0146204614
:1034F000BDE810402DF078BA10B5044654F8840B9E
:1035000004F00BFB01462046BDE810402DF06CBADC
:1035100037B5054601A9B4302DF066F9044620B947
:10352000BDF80410286804F0FDFA204603B030BD51
:1035300010B50446006804F0E9F90146D4F88400A7
:10354000BDE81040FFF7D9BD10B50446006804F08F
:10355000E5F90146D4F88400BDE81040FFF7CDBD81
:1035600030B5C3B00546FF238DF8073002AA0DF130
:1035700007030021006804F0B5F99DF80720D5F88D
:10358000840002A9FFF7B4FD43B030BD30B5C3B02D
:103590000546FF238DF8073002AA0DF1070301212C
:1035A000006804F09FF99DF80720D5F8840002A96F
:1035B000FFF79EFD43B030BD10B50446006804F02F
:1035C000CAFA0146D4F88400BDE81040FFF795BD63
:1035D0001FB504466946006804F0E9F930B9D4F82B
:1035E00084006946FFF786FD04B010BDFEF716F8AB
:1035F000014604F184002DF022FBF5E730B587B0D9
:10360000044601A9006804F0C0FA00284CD19DF8D6
:1036100014309B0742D50DF10201206804F0BAFA7C
:103620000DF10301206804F0C2FAD4F884000822E6
:1036300001A9FFF75DFD78BBBDF80C1004F1840013
:103640002DF0C3F940BB9DF8131004F184002DF058
:10365000CBF908BB9DF80210D4F88400FFF74DFDAC
:10366000D0B99DF80310D4F88400FFF746FD98B94F
:103670009DF81110D4F88400FFF73FFD60B99DF864
:103680001210D4F88400FFF738FD28B99DF8151002
:10369000D4F88400FFF731FD07B030BD142104F1E8
:1036A00084002DF0CCFAF7E7FDF7B8FF0146F6E706
:1036B00010B58CB000230446ADF80630206802AA8D
:1036C0000DF1060104F03DFA08B1002005E002A961
:1036D0002046FFF71FFD0028F0D00CB010BD30B51C
:1036E0008DB000230446ADF80630206802AA0DF123
:1036F000060104F026FA08B1002035E004F1840048
:103700002DF01EFA80BB0822D4F884000DEB0201D4
:10371000FFF7EEFC40BBBDF8181004F184002DF05B
:1037200054F908BBBDF8281004F184002DF04DF9C0
:10373000D0B9BDF82A1004F184002DF046F998B9EB
:103740009DF82510D4F88400FFF7D7FC60B99DF8E8
:103750002610D4F88400FFF7D0FC28B904F18400C7
:103760002DF00DFA0028C0D00DB030BD37B504469D
:10377000002354F8840B8DF807300DF1070103F096
:1037800078FF851E9DF8070008B903B030BD35F8F5
:10379000021F20462DF019F90028F6D19DF80730B8
:1037A000013B8DF80730EDE773B50646054656F840
:1037B000B40B03F058FFB5F8BC30B5F8BA209B1A2B
:1037C0009BB2012B01D8002414E00DF10601304614
:1037D0002CF0F6FF044638B9BDF80610286803F04F
:1037E00034FF04460028E6D001235C2280212846CD
:1037F000FEF70EF9204602B070BD90F88419D0F89B
:103800008400FFF77CBC30B589B0002304460193E7
:10381000206802AA01A904F06AF808B1002062E059
:1038200004F184002DF08CF900285CD1D4F88400D8
:1038300002A9FFF75FFC002855D19DF81810D4F8B5
:103840008400FFF75AFC00284DD19DF81A10D4F8D7
:10385000840001F00101FFF752FC002843D19DF8DC
:103860001930D4F88400C3F38001C3F3C0024901C6
:1038700041EA021141EAD311C3F3001241EAC20145
:10388000C3F3801241EA4201C3F3401241EA8201CC
:1038900043F3010341EA8311C9B2FFF72EFC10BBC9
:1038A0000146D4F88400FFF72AFCE0B9BDF81C10EB
:1038B00004F184002DF089F8A8B99DF81A30D4F8E5
:1038C0008400C3F34001C3F38002C90141EA8211BD
:1038D00001F0C001FFF711FC28B904F184002DF0BC
:1038E0004EF9002894D009B030BD70B5ADF5027D19
:1038F000002306460093306801AA694604F001F8E7
:1039000008B1002038E006F184002DF019F998BBC9
:103910009DF80410D6F88400FFF7EFFB60BB029916
:1039200006F184002DF060F830BB9DF80C200DF1FD
:103930000D0106F184002DF0DBF8E8B99DF80A11BD
:10394000D6F8840001F00101FFF7D9FBA0B99DF87A
:103950000B2143A906F184002DF0CAF860B9BDF827
:10396000041206F184002DF030F828B906F1840025
:103970002DF005F90028BED00DF5027D70BD90F840
:10398000DA10D0F88400FFF7BABB00F1DA01B430E6
:103990002CF0F7BE90F8DB10D0F88400FFF7AFBB37
:1039A00000F1DB01B4302CF0ECBEB0F8DC10843058
:1039B0002DF00BB800F1DC01B4302CF001BF7FB565
:1039C00091F8783005460C46002B40F06E8194F853
:1039D0007930FBB105F184002DF0B2F8002840F0F9
:1039E0007D8141F21D5105F184002DF056F800282B
:1039F00040F07481D4E9042305F184002DF013F81C
:103A0000002840F06B8105F184002DF0B8F8002803
:103A100040F0648194F87A30FBB105F184002DF018
:103A20008FF8002840F05A81462105F184002DF0DE
:103A300034F8002840F05281D5F88400102204F1B7
:103A40002001FFF755FB002840F0488105F1840074
:103A50002DF095F8002840F0418194F87B30F3B1C7
:103A600005F184002DF06CF8002840F037814421E6
:103A700005F184002DF011F8002840F02F8104F1A9
:103A8000300105F184002DF043F8002840F0268134
:103A900005F184002DF073F8002840F01F8194F8A0
:103AA0007C30FBB105F184002DF04AF8002840F08D
:103AB0001581452105F184002CF0EFFF002840F02E
:103AC0000D81D5F88400082204F14101FFF710FBB5
:103AD000002840F0038105F184002DF050F8002803
:103AE00040F0FC8094F87D3073B3D4F84900D4F8EA
:103AF0004D106B4603C3002305F18400CDE902336A
:103B00002DF01EF8002840F0E980622105F18400C4
:103B10002CF0C3FF002840F0E180D5F8840069460E
:103B2000FFF7E8FA002840F0D980D5F8840040215A
:103B3000FFF7E3FA002840F0D18005F184002DF072
:103B40001EF8002840F0CA8094F87E30002B40F028
:103B5000C78094F87F30F3B105F184002CF0F0FFBA
:103B6000002840F0BB80362105F184002CF095FF41
:103B7000002840F0B380B4F8581005F184002CF010
:103B800024FF002840F0AA8005F184002CF0F7FF04
:103B9000002840F0A38094F88030F3B105F1840050
:103BA0002CF0CEFF002840F09980212105F18400FF
:103BB0002CF073FF002840F0918094F85A10D5F84B
:103BC0008400FFF79AFA002840F0888005F184000D
:103BD0002CF0D5FF002840F0818094F88130DBB1D3
:103BE00005F184002CF0ACFF002877D14B2105F1C2
:103BF00084002CF052FF002870D1D5F884001022E8
:103C000004F15E01FFF774FA002867D105F1840022
:103C10002CF0B5FF002861D194F882305BB304F139
:103C20006E000222694610F068FE05F184002CF057
:103C300087FF002852D141F21F5105F184002CF07A
:103C40002CFF00284AD1B4F86E1005F184002CF046
:103C5000BCFE002842D19DF80010D5F88400FFF783
:103C60004CFAD8BB03F0BDFF022856D805F18400FA
:103C70002CF085FF90BB94F8830078B305F18400A5
:103C80002CF05EFF50BB222105F184002CF005FFD3
:103C900020BB616F2846FEF782F9F8B905F1840070
:103CA00004B0BDE870402CF06ABF84302CF048FFAF
:103CB000A0B941F21C5105F184002CF0EEFE68B968
:103CC000D4E9002305F184002CF0ADFE30B905F1F4
:103CD00084002CF054FF00283FF479AE04B070BD8E
:103CE00005F184002CF02CFF0028F7D141F21E5181
:103CF00005F184002CF0D1FE0028EFD1616D05F1B3
:103D000084002CF071FE0028E8D105F184002CF02D
:103D100036FF00283FF41DAFE0E79DF80110D5F80D
:103D20008400FFF7EAF90028A0D0D7E710B5A2B0C9
:103D300004466946006803F0BDFB69462046FFF76C
:103D40003EFE22B010BD10B5A2B004466946006820
:103D500003F0C7FB69462046FFF731FE22B010BDD5
:103D600010B5C0B004466946006803F0A8FB10B166
:103D700000238DF8FE309DF8FE20D4F884006946BB
:103D8000FFF7B6F940B010BD10B5C0B004466946A3
:103D9000006803F0ABFB10B100238DF8FE309DF8F6
:103DA000FE20D4F884006946FFF7A2F940B010BDA8
:103DB0002DE9F04F0D4685B091460446882200213A
:103DC0002846DDF838809DF83C709A4635F026F894
:103DD000B9F1000F02D00023C9F80030BAF1000F8A
:103DE00002D000238AF80030B8F1000F02D000237F
:103DF000C8F80030B4F8BA20B4F8BC309A4201D107
:103E0000002025E104F1B4002CF095FD002840F0DD
:103E10001F8102A904F1B4002CF022FD002840F01B
:103E20001781029B622B00F0DB8029D84B2B0AD82C
:103E3000432B0FD8222B00F09081362B00F00B8102
:103E4000212B00F01C8104F1B4002CF093FD00281C
:103E5000D0D0FDE0443B072BF5D801A252F823F067
:103E6000653F0000A13F00001B3F0000473E0000EF
:103E7000473E0000473E0000473E0000AB400000C8
:103E8000A3F5A8531C3B0B2BDDD80B2BDBD801A2D1
:103E900052F823F0C53E0000EF3E00002B4000002A
:103EA000F3400000A7410000473E0000473E0000ED
:103EB000473E0000473E0000473E0000473E0000EE
:103EC000F14100002FB1B4F8BA20B4F8BC309A42E6
:103ED00009D0294604F1B4002CF09EFC002840F0E3
:103EE000B7802881A872012385F87830ABE72FB11D
:103EF000B4F8BC20B4F8BA309A420AD005F11001E7
:103F000004F1B4002CF088FC002840F0A180288344
:103F1000A876012385F8793095E72FB1B4F8BA2057
:103F2000B4F8BC309A4219D00DF1060203A904F18D
:103F3000B4002CF0E0FC002840F08A80BDF8063088
:103F4000102B40F05381039B05F1200203F1100177
:103F500053F8040B42F8040B8B42F9D1012385F886
:103F60007A3070E72FB1B4F8BC20B4F8BA309A4276
:103F700012D003A904F1B4002CF09FFC002867D1F3
:103F8000039834F0AAFF102800F23081421C0399F4
:103F900005F1300034F093FF012385F87B3052E7C0
:103FA0002FB1B4F8BA20B4F8BC309A4214D00DF155
:103FB000060203A904F1B4002CF09DFC002847D1AF
:103FC000BDF80630082B40F01181039A1368C5F83C
:103FD00041305368C5F84530012385F87C3032E71D
:103FE0002FB1B4F8BA20B4F8BC309A4219D01022DC
:103FF00003A904F1B4002CF04AFC48BB0DF1060102
:1040000004F1B4002CF0ADFB10BB9DF80630402B42
:1040100040F0EC80039A1368C5F849305368C5F83E
:104020004D30012385F87D300DE74FB1B4F8BA204B
:10403000B4F8BC309A4203D1012385F87E3002E700
:1040400005F1540104F1B4002CF0CEFB0028F3D0AC
:1040500005B0BDE8F08F4FB1B4F8BA20B4F8BC3069
:104060009A4203D1012385F87F30ECE605F158012F
:1040700004F1B4002CF0A4FB0028F3D0E8E72FB142
:10408000B4F8BA20B4F8BC309A420AD003A904F1BB
:10409000B4002CF066FB0028DAD19DF80C30A5F8AE
:1040A0005A30012385F88030CDE62FB1B4F8BA201C
:1040B000B4F8BC309A4218D00DF1060203A904F1FD
:1040C000B4002CF018FC0028C2D1BDF80630102B2B
:1040D00040F08C80039B05F15E0203F1100153F860
:1040E000040B42F8040B8B42F9D1012385F881308F
:1040F000A9E62FB1B4F8BA20B4F8BC309A4226D061
:1041000005F16E0104F1B4002CF05AFB00289FD198
:1041100003A904F1B4002CF024FB002898D103F08B
:1041200060FD022817D9B4F8BC20B4F8BA309A421E
:1041300011D00DF10D0104F1B4002CF012FB002898
:1041400086D1022203A905F16E0010F091FB012334
:1041500085F8823077E60122F4E72FB1B4F8BC206D
:10416000B4F8BA309A421AD000234FF0010B0FE096
:1041700003A904F1B4002CF0F4FA00287FF468AF2E
:104180009DF80C301F2B31D86A6F0BFA03F31343E1
:10419000B4F8BA206B67B4F8BC309A42E8D1012376
:1041A00085F883304FE637B1B4F8BA20B4F8BC30A4
:1041B0009A423FF448AE0DF1060203A904F1B4009F
:1041C0002CF099FB00287FF443AFBDF80630FF2B9D
:1041D0000CD8B9F1000F02D0039AC9F80020BAF147
:1041E000000F3FF430AE8AF800302CE607202FE7AE
:1041F00037B1B4F8BA20B4F8BC309A423FF423AED9
:10420000102203A904F1B4002CF041FB00287FF434
:104210001FAFB8F1000F3FF416AE039BC8F8003093
:1042200011E600BF10B50023A4B0CDE900331A4653
:1042300002A90446FFF7BCFD18B9206802A903F0E3
:1042400043F924B010BD10B50023A4B0CDE900336C
:104250001A4602A90446FFF7ABFD18B9206802A967
:1042600003F049F924B010BD70B5C2B00023064672
:104270000DF1020201A9B4300193ADF802302CF027
:104280003AFB70B9BDF80240FE2C0CD801992246C9
:1042900002A834F014FE30688DF8064102A903F03C
:1042A0001BF942B070BD0620FBE770B5C2B0002319
:1042B00006460DF1020201A9B4300193ADF80230B7
:1042C0002CF019FB70B9BDF80240FE2C0CD80199F6
:1042D000224602A834F0F3FD30688DF8064102A9A9
:1042E00003F011F942B070BD0620FBE710B50023C2
:1042F000A6B0CDE9003303AA0DF10B0304A90446CF
:10430000FFF756FD40B9CDE900009DF80B30039A48
:10431000206804A903F001F926B010BD10B50023F0
:10432000A6B0CDE9003303AA0DF10B0304A904469E
:10433000FFF73EFD40B9CDE900009DF80B30039A30
:10434000206804A903F0F3F826B010BD10B50446A8
:104350000846FDF763F941F23E51C4F8C00904F183
:10436000F000FEF7CEFE04F1E000BDE8104004F0DE
:1043700017BD0B4601461846FFF7E8BFD0F8C01935
:1043800084302CF031BB000010B5A6B00446882262
:10439000002104A834F042FD0DF10A0203A904F142
:1043A000B4002CF0A8FA60B9BDF80A30FD2B0AD889
:1043B000064A00920194039A2068DBB204A903F034
:1043C000B6F826B010BD0620FBE700BF734300001F
:1043D00010B5A8B00123019305AB009304AA0DF119
:1043E0000F0306A90446FFF7E3FC40B9059B0093C1
:1043F000049A9DF80F30206824A903F089F828B0AA
:1044000010BD10B5A8B00123019305AB009304AA19
:104410000DF10F0306A90446FFF7CAFC40B9059B3E
:104420000093049A9DF80F30206824A903F07AF8CD
:1044300028B010BD1FB50446006803F00DFB03460D
:1044400088B1596800686A4603C20023D4F8840022
:104450006946CDE90233FEF74DFE20B9D4F8840059
:104460004021FEF74AFE04B010BD37B504461022C5
:1044700001A9B4302CF00BFA70B90DF1030104F16D
:10448000B4002CF06EF938B99DF80330402B05D1FB
:104490000199206803F0E4FA03B030BD0720FBE780
:1044A00010B50446006803F0D3FA014628B1D4F8E9
:1044B0008400BDE81040FEF71DBE10BD10B50446D7
:1044C000006803F0E7FA014628B1D4F88400BDE89B
:1044D0001040FEF70FBE10BD70B50546064655F8F4
:1044E000840B03F05EF804460CB9204670BD2846E4
:1044F0002CF026FB0028F9D1D6F884002146FEF7DF
:10450000F9FD0028F2D1217CD6F88400FEF7F5FDF4
:104510000028EBD1A17C284641F300012CF064FA7D
:104520000028E3D1A17C284641F340012CF05CFA3D
:104530000028DBD128462CF022FB0028D6D1646964
:10454000D2E730B589B0044602A9B4302CF0ADF9F9
:1045500048BB06A904F1B4002CF003F918BB694666
:1045600004F1B4002CF040F9E8B901A904F1B40059
:104570002CF03AF9B8B9019B03221B1A18BF01238A
:104580008DF81920009A5B00824218BF43F00103A6
:104590009DF81A20206822F00302134302A98DF827
:1045A0001A3003F003F809B030BD37B505461022C4
:1045B00001A9B4302CF06BF9044630B90199286890
:1045C00002F0F9FF172818BF0446204603B030BD9B
:1045D000022184302CF033BB10B50446006802F091
:1045E000B1FF011E18BF0121D4F88400BDE81040BE
:1045F000FEF785BD37B5002305460DF10701B43040
:104600008DF807302CF0BDF8044640B99DF807300E
:10461000834214BF03210146286802F098FF204618
:1046200003B030BD70B50546064655F8840B02F060
:10463000C7FF04460CB9204670BD28462CF080FA0E
:104640000028F9D1D6F884002146FEF753FD002852
:10465000F2D128462CF093FA0028EDD12469E9E73D
:1046600037B50546102201A9B4302CF010F90446E4
:1046700030B90199286802F0A8FF182818BF04462D
:10468000204603B030BD37B50546102201A9B4302D
:104690002CF0FDF8044630B90199286802F09AFF21
:1046A000172818BF0446204603B030BD10B5044695
:1046B000006802F047FF431EDBB2042B34BF014603
:1046C0000021D4F88400BDE81040FEF716BD37B5D0
:1046D00005460DF10701B4302CF043F8044640B90B
:1046E0009DF807104B1E032B88BF0146286802F077
:1046F0002EFF204603B030BD10B50446006802F01E
:1047000073FF80F00101C9B2D4F88400BDE8104005
:10471000FEF7F5BC37B5002305460DF10701B430AF
:104720008DF807302CF02DF8044630B99DF80710AD
:10473000286881F0010102F05CFF204603B030BD23
:1047400030B589B0002304460193206802AA01A96C
:1047500003F0D2F808B1002050E004F184002CF0FE
:10476000EFF900284AD1D4F8840002A9FEF7C2FC70
:10477000002843D19DF81810D4F88400FEF7BDFC42
:1047800000283BD19DF81C10D4F88400C1F3C0016F
:10479000FEF7B5FC90BB9DF81C109DF81C3041F352
:1047A0000101481C2CD04A1E514251418901C3F3DA
:1047B000800341EA4311D4F8840001F0E001FEF7E0
:1047C0009CFCD8B90146D4F88400FEF798FCA8B93F
:1047D0009DF81C10D4F88400C1F30011FEF78FFC83
:1047E00060B9BDF81A1004F184002CF0EEF828B975
:1047F00004F184002CF0C3F90028A6D009B030BD24
:10480000C021D4E730B585B00023044601AA02A92F
:10481000B4300293ADF804300393ADF806302CF0B9
:1048200073F800BB0DF1060203A904F1B4002CF0EB
:1048300062F8C0B90346BDF804200299206802F06E
:10484000F3FE054670B1022103F026F820682946E0
:1048500002F0D4FE38B9D4F894390133C4F894394D
:1048600005B030BD0320D4F8A8390133C4F8A83905
:10487000F6E710B5044654F8840B02F00CFE01462E
:104880002046BDE810402CF0A0B837B505460DF124
:104890000601B4302BF094FF044620B9BDF8061091
:1048A000286802F0FDFD204603B030BD10B5044677
:1048B00054F8840B02F0CAFF01462046BDE81040C0
:1048C0002CF083B810B5044654F8840B02F09DFF19
:1048D00001682046BDE810402CF086B810B50446AB
:1048E00054F8840B02F091FFC1682046BDE81040E7
:1048F0002CF07AB810B5044654F8840B02F085FF0A
:1049000001692046BDE810402CF06EB810B5044691
:1049100054F8840B02F079FF41692046BDE810404D
:104920002CF062B810B5044654F8840B02F06DFF09
:1049300081692046BDE810402CF056B810B50446F9
:1049400054F8840B02F061FFC1692046BDE81040B5
:104950002CF04AB810B5044654F8840B02F055FF09
:10496000016A2046BDE810402CF03EB810B5044660
:1049700054F8840B02F049FF416A2046BDE810401C
:104980002CF032B810B5044654F8840B02F03DFF09
:10499000816A2046BDE810402CF026B810B50446C8
:1049A00054F8840B02F031FFC16A2046BDE8104084
:1049B0002CF01AB810B5044654F8840B02F025FF09
:1049C000816B2046BDE810402CF00EB810B50446AF
:1049D00054F8840B02F019FF41682046BDE81040EE
:1049E0002CF002B810B5044654F8840B02F00DFF09
:1049F00081682046BDE810402BF0F6BF10B5044694
:104A000054F8840B02F001FFC16B2046BDE8104052
:104A10002BF0EABF10B5044654F8840B02F0F5FE03
:104A2000416C2046BDE810402BF0DEBF10B50446B7
:104A300054F8840B02F0E9FE016D2046BDE81040F9
:104A40002BF0D2BF10B5044654F8840B02F0DDFE03
:104A5000416D2046BDE810402BF0C6BF10B504469E
:104A600054F8840B02F0D1FE816D2046BDE8104061
:104A70002BF0BABF10B5044654F8840B02F0C5FE03
:104A8000C16D2046BDE810402BF0AEBF10B5044606
:104A900054F8840B02F0B9FE016E2046BDE81040C8
:104AA0002BF0A2BF10B5044654F8840B02F0ADFE03
:104AB000416E2046BDE810402BF096BF10B504466D
:104AC00054F8840B02F0A1FE816E2046BDE8104030
:104AD0002BF08ABF10B5044654F8840B02F095FE03
:104AE000C16E2046BDE810402BF07EBF10B50446D5
:104AF00054F8840B02F089FE816C2046BDE810401A
:104B00002BF072BF10B5044654F8840B02F07DFE02
:104B1000C16C2046BDE810402BF066BF10B50446BE
:104B200054F8840B02F071FE016F2046BDE810407E
:104B30002BF05ABF10B5044654F8840B02F065FE02
:104B4000416F2046BDE810402BF04EBF10B5044623
:104B500054F8840B02F059FE816F2046BDE81040E6
:104B60002BF042BF10B5044654F8840B02F04DFE02
:104B7000C16F2046BDE810402BF036BF10B504468B
:104B800054F8840B02F041FED0F880102046BDE8B6
:104B900010402BF029BF10B5044654F8840B02F0E6
:104BA00034FED0F884102046BDE810402BF01CBF26
:104BB000D0F8941984302BF017BFD0F898198430AE
:104BC0002BF012BFD0F8A81984302BF00DBFD0F80D
:104BD0009C1984302BF008BFD0F8A01984302BF03A
:104BE00003BFD0F8A41984302BF0FEBED0F8B8195A
:104BF00084302BF0F9BED0F8B01984302BF0F4BE1D
:104C0000D0F8AC1984302BF0EFBE10B5044654F840
:104C1000840B03F008F801682046BDE810402BF033
:104C2000E3BE10B5044654F8840B02F0FCFF416863
:104C30002046BDE810402BF0D7BE10B5044654F80E
:104C4000840B02F0F0FF81682046BDE810402BF095
:104C5000CBBE10B5044654F8840B02F0E4FFC168E3
:104C60002046BDE810402BF0BFBE10B5044692B000
:104C700054F8840B694602F033FEBDF8001020465C
:104C80002BF0A3FE002859D1BDF8021020462BF0CE
:104C90009CFE002852D1BDF8081020462BF095FE4E
:104CA00000284BD1BDF80A1020462BF08EFE0028BC
:104CB00044D1BDF8101020462BF087FEF0BBBDF8A4
:104CC000121020462BF081FEC0BBBDF81810204604
:104CD0002BF07BFE90BBBDF81A1020462BF075FE22
:104CE00060BBBDF8201020462BF06FFE30BBBDF836
:104CF000221020462BF069FE00BBBDF8281020468C
:104D00002BF063FED0B9BDF82A1020462BF05DFED3
:104D1000A0B9014620462BF058FE78B9014620463E
:104D20002BF053FE50B9BDF8301020462BF04DFE4D
:104D300020B9BDF8321020462BF047FE12B010BD4E
:104D400038B5044654F8840B02F05FFD0546204652
:104D50002BF0F6FE002840F0E080296820462BF07A
:104D600043FE002840F0D980696820462BF03CFEC5
:104D7000002840F0D280A96820462BF035FE00289C
:104D800040F0CB80E96820462BF02EFE002840F052
:104D9000C480296920462BF027FE002840F0BD8002
:104DA000696920462BF020FE002840F0B680A969F2
:104DB00020462BF019FE002840F0AF80E96920461C
:104DC0002BF012FE002840F0A880296A20462BF024
:104DD0000BFE002840F0A180696A20462BF004FEFB
:104DE000002840F09A80A96A20462BF0FDFD00289B
:104DF00040F09380E96A20462BF0F6FD002840F051
:104E00008C80A96B20462BF0EFFD002840F08580B8
:104E1000E96B20462BF0E8FD00287ED1296C204666
:104E20002BF0E2FD002878D1296B20462BF0DCFD29
:104E3000002872D1696B20462BF0D6FD00286CD17A
:104E400020462BF09CFE002867D120462BF078FEF0
:104E5000002862D1696C20462BF0C6FD00285CD189
:104E6000A96C20462BF0C0FD002856D1E96C2046E5
:104E70002BF0BAFD002850D1296D20462BF0B4FD4F
:104E800000284AD1696D20462BF0AEFD002844D1A0
:104E9000A96D20462BF0A8FD00283ED1E96D2046E3
:104EA0002BF0A2FD002838D1296E20462BF09CFD66
:104EB00098BB696E20462BF097FD70BBA96E20460B
:104EC0002BF092FD48BBE96E20462BF08DFD20BBF8
:104ED000296F20462BF088FDF8B9696F20462BF02A
:104EE00083FDD0B9A96F20462BF07EFDA8B9E96FEC
:104EF00020462BF079FD80B9D5F8801020462BF0A4
:104F000073FD50B9D5F8841020462BF06DFD20B903
:104F10002046BDE838402BF032BE38BD08B50068E9
:104F200002F077FC002008BD38B5044654F8840B25
:104F300002F084FE0188054620462BF046FD03461C
:104F400080BB698820462BF040FD034650BBA988F2
:104F500020462BF03AFD034620BBE98820462BF083
:104F600034FD0346F0B9298920462BF02EFD034677
:104F7000C0B9698920462BF028FD034690B9A9895C
:104F800020462BF022FD034660B9E98920462BF02C
:104F90001CFD034630B9B5F848102046BDE838403E
:104FA0002BF013BD184638BD08B5006802F04BFE63
:104FB000002008BD38B5044654F8840B02F033FED7
:104FC000054620462BF0BCFD034630BB2968204631
:104FD0002BF00AFD034600BBA96820462BF004FD18
:104FE0000346D0B920462BF0CAFD0346A8B9204697
:104FF0002BF0A6FD034680B9696820462BF0F4FC2F
:10500000034650B9E96820462BF0EEFC034620B970
:105010002046BDE838402BF0B2BD184638BD08B573
:10502000006802F004FE002008BD10B504460068C8
:1050300002F0CFFCC0F34001C0F3800200F0010099
:10504000FEF762F80146D4F88400BDE81040FEF790
:1050500054B813B5002304460DF10701B4308DF8A0
:1050600007302BF07EFB70B99DF807302068C3F342
:105070004002C3F3C0019B0041EA420103F0040374
:10508000194302F0B5FC02B010BD10B5044654F847
:10509000840B02F063FC01462046BDE810402BF073
:1050A000A3BC37B50023054601A9B43001932BF00A
:1050B0009BFB044618B90199286802F054FC20466D
:1050C00003B030BD10B5044654F8840B02F058FD0F
:1050D00001462046BDE810402BF077BC90F88519BA
:1050E000D0F88400FEF70BB800F68511B4302BF031
:1050F00048BB30B585B0002304460293ADF80430B8
:105100000393ADF8063001AA4FF4807302A9B430BE
:10511000ADF800302BF0F8FB20BB0DF1060203A91F
:1051200004F1B4002BF0E7FBE0B9BDF804200299CC
:1051300020686B4602F078FA054690B1022102F031
:10514000ABFB0121284602F0ACFB2068294602F0A7
:1051500055FA38B9D4F898390133C4F8983905B0FC
:1051600030BD0320D4F8A8390133C4F8A839F6E7D4
:1051700010B50446006802F04CFB206802F057FDB1
:10518000206802F060FD2046FCF738FB002010BDCF
:1051900013B504460DF10601B4302BF011FB20B914
:1051A000BDF80610206802F050FA02B010BD37B505
:1051B00005460DF10601B4302BF002FB044638B968
:1051C000BDF80610286802F047FA172818BF0446F1
:1051D000204603B030BD10B50446006802F052FA14
:1051E0000146D4F88400BDE81040FDF788BF37B50C
:1051F00005460DF10701B4302BF0C3FA044620B97F
:105200009DF80710286802F042FA204603B030BD2E
:10521000002184302BF041BC2DE9F04106460D46BB
:10522000002900F0858091F83910332301F00F0830
:10523000C1F300170722802184302BF0DFFC002807
:105240006FD195F83610D6F88400FDF756FF002888
:1052500067D195F83710D6F88400FDF74EFF002887
:105260005FD106F184002BF06BFC002859D1D6F8F1
:10527000840008222946FDF73BFF002851D14FF654
:10528000FF7106F184002BF0A0FB002849D1698E44
:1052900006F184002BF099FB002842D195F83810D4
:1052A000D6F88400FDF729FFD8BB06F184002BF067
:1052B00066FCB0BB06F184002BF042FC88BB0321E6
:1052C00006F184002BF0E9FB58BBF90041EA081114
:1052D000D6F8840001F0F801FDF70FFF08BB05F1D7
:1052E000080106F184002BF013FCD0B9082205F167
:1052F000190106F184002BF0FBFB90B995F82120F1
:1053000005F1220106F184002BF0F2FB48B906F109
:1053100084002BF034FC20B906F184002BF051FC02
:1053200080B10B22002106F1F00000F031FC03E017
:105330003021F030FDF7E5FE06F1E000BDE8F04178
:1053400003F02EBDBDE8F0810B4601461846FFF77D
:1053500063BF70B504460D46F1B1392307228021A1
:1053600084302BF04BFC80B92978D4F88400FDF709
:10537000C4FE50B96978D4F88400FDF7BEFE20B9A8
:1053800004F184002BF01DFC80B10B22002104F1FC
:10539000F00000F0FDFB03E03021F030FDF7B1FE3E
:1053A00004F1E000BDE8704003F0FABC70BD0B46AC
:1053B00001461846FFF7CDBFF8B5044608460F462C
:1053C00002F066FA06220646C0F17303802104F15A
:1053D00084002BF013FCC8B9384602F053FA01469A
:1053E00004F184002BF0F1FA80B9D4F88400394636
:1053F0002BF0D6F850B904F184002BF0E2FB28B969
:105400002EB1D4F89C390133C4F89C39F8BDD4F8D6
:10541000A0390133C4F8A039F8E7F8B5074607F614
:105420008C1002F057FA054608B9044610E02946E8
:1054300007F68C1002F04CFA29463846FFF7BCFFFD
:1054400004460028EBD0294607F68C1002F03DFAFE
:105450002046F8BD38B504460D46D1B1084602F0E5
:1054600011FAB0F5A26F04D92846BDE8384002F021
:1054700007BA294604F68C1002F024FA94F80A2997
:1054800094F80B399A4204D12046BDE83840FFF722
:10549000C4BF38BD0B4601461846FFF7DBBFF8B561
:1054A00090F8873906460D461746002B62D07123C7
:1054B0000622802184302BF0A1FB00285AD1A98834
:1054C00006F184002BF081FA002853D1AA882968BC
:1054D000D6F88400FDF70CFE00284BD1002F44D1F4
:1054E00095F91510D6F88400C9B2FDF706FE00281C
:1054F00040D1D6F884008021FDF7FFFDD0BB3946AE
:1055000006F184002BF061FAA0BB06F184002BF0B9
:1055100017FB78BBA979D6F88400FDF7EEFD0146AC
:1055200040BB07B9A97DD6F88400FDF7E6FD08BBAE
:10553000EFB1D5E9082306F184002BF074FAC8B95D
:1055400006F184002BF01BFBA0B906F184002BF0C0
:10555000F7FA78B906F184002BF011FB50B906F187
:105560008400BDE8F8402BF02CBB7F21BAE7D5E9D9
:105570000223E0E7F8BD13460A4601461846FFF746
:105580008EBF90F88719D0F88400FDF7B8BD0000F1
:1055900037B504460DF10701B4302BF0F2F805469B
:1055A00068B99DF8073094F887299A4207D0206897
:1055B00084F8873933B10549224602F009F92846B3
:1055C00003B030BD2A462946F7E700BF77550000F3
:1055D0000020704702460249006802F039BB00BF54
:1055E000FD55000010B54C210446F030FDF789FD53
:1055F00004F1E000BDE8104003F0D2BBFFF7F2BFBA
:10560000D1F8E8300343C1F8E83001F1E00003F0DD
:10561000C7BB0000D0F8E8302DE9F0410446002B6C
:105620005AD05B072DD590F8853953B3006802F046
:105630008DFA012807D9002384F88539492104F11E
:10564000F000FDF75EFD206802F080FA042818D112
:10565000206802F0C8FAA0B1D4F8E830254623F05B
:10566000800355F8F00BC4F8E830002102F0A9FAE5
:1056700042212846FDF745FD68220021284600F01A
:1056800087FA1A4E192504F1F007013D02D1C4F83A
:10569000E85021E0D6F80080D4F8E83018EA030F8B
:1056A00001D10836F1E77168522917D03846FDF765
:1056B00028FDB8F5007F07D15A213846FDF721FDB6
:1056C0005B213846FDF71DFDD4F8E83023EA0803D6
:1056D000C4F8E830002BE4D1BDE8F08194F88939B2
:1056E000002284F88929002BE0D1E2E774B6030098
:1056F0000023037243810346C0E90021034A43F8B3
:105700000C2FC0E90530024B18607047E55A0000C5
:10571000B0180020F0B5ADF5157D00240646ADF8B3
:1057200006400CAD02AF70683A460DF1060102F07A
:1057300008FA98B1E1B204EB0414A4B23368D3F8C8
:1057400084002AF05CFF30B933682246D3F8840025
:105750000CA92AF067FF0DF5157DF0BD0134212C51
:1057600031D03B46113503CB3B8A05F8093C1B0A77
:1057700005F8083CBB6805F8073C1A0A05F8062C32
:105780001A0C1B0E05F8052C05F8043C97F826208A
:105790007B7F05F8033CBB7F05F8023CC2F3400366
:1057A00045F80D1C9B00C2F3000143EA4103C2F31C
:1057B000C0010B43C2F3800243EA021345F8110C07
:1057C00005F8013CAFE720214FF40874B6E72DE956
:1057D000F0474FF00009ADF5347D80464F464C460A
:1057E0004FF6FE7A0CADD8F804006A461FFA89F12C
:1057F00002F09FFA002861D1BDF8183053455AD005
:105800001F2F5BD86A4603CA04F1080205EB040C9B
:1058100092B22851CCF80410AB5404F1090292B2B0
:105820001B0AAB5404F10A0292B2029BAB5404F17E
:105830000B0292B2190AA95404F10C0292B2190C8B
:10584000A95404F10D0292B21B0EAB5404F10E02E6
:1058500092B2039BAB5404F10F0292B2190AA954FD
:1058600004F1100292B2190CA95404F1110292B27F
:105870001B0EAB5404F112039BB29DF81E20EA5498
:1058800004F113039BB29DF81F20EA549DF82920D0
:10589000C2F3400304F11401C2F300009B0089B27B
:1058A00043EA4003C2F3800243EA0213153401378E
:1058B0006B54A4B2FFB209F1010994E7D8F80030A3
:1058C0003946D3F884002AF09AFE38B9D8F8003067
:1058D0002246D3F884000CA92AF0A4FE0DF5347DED
:1058E000BDE8F087F0B5102A85B007460C4602D80F
:1058F000062005B0F0BD0B466D4601F1100C18688E
:1059000059682E4603C6083363453546F7D1237CD4
:10591000591E1F29ECD803F111019142E8D1786892
:1059200004F11102694602F006F8E2E7F0B5037AE5
:1059300087B005460C467BBB102A03D806242046B8
:1059400007B0F0BD0B4602AE01F1100C18685968A3
:10595000374603C7083363453E46F7D1237C591EBB
:105960001F29EBD803F111019142E7D10B4A0092B4
:10597000019504F11102686802A901F0D7FF0446FD
:105980000028DCD1012368812B7241F2883105F1B6
:105990000C0003F0C6FAD2E70524D0E7775A0000DE
:1059A0002DE9F043064691B00D46904699460029F0
:1059B00036D1AAB3A3B3104601F068FF07464046AC
:1059C00001F060FF87422ED2C01B84B2B4F5807F05
:1059D00003D94FF480744FF40045306843F6014317
:1059E0000722802184302BF009F9002836D1336852
:1059F0001022D3F8840009EB02012AF013FE68BBE1
:105A0000306845EA040184302AF0DFFF30BB64B916
:105A1000306884302BF0D5F800BB73890133738173
:105A200011B0BDE8F0832C46D7E7402C254628BFAF
:105A300040252B466A463946404601F037FF8542ED
:105A40000CD133682A46D3F8840069462AF0EAFD6F
:105A500020B92F44651BBFB2ACB2D8E730680B2227
:105A60000021F03000F094F83068E03011B0BDE86B
:105A7000F04303F095B910B40446184613460A469D
:105A8000214610BCFFF78CBF10B50446006880218A
:105A900043F60243072284302BF0B0F8014660B190
:105AA00020680B22F030002100F072F82068E0300E
:105AB00003F076F90023237210BD2368D3F8840025
:105AC0002AF09DFD0028EBD12068618984302AF0FE
:105AD0007CFF0028E4D1206884302BF072F8002885
:105AE000E8D0DDE7C068FFF7CFBF0000034B1868C0
:105AF00008B1FFF70FBE0D20704700BFB01800209F
:105B0000034B186808B1FFF762BE0D20704700BF55
:105B1000B018002007B500230DF1020201A9B4302E
:105B20000193ADF802302AF0E6FE38B9054B18684B
:105B300030B1BDF802200199FFF7F8FE03B000BDB7
:105B40000D20FBE7B018002007B500230DF102027D
:105B500001A9B4300193ADF802302AF0CCFE38B977
:105B6000054B186830B1BDF802200199FFF7BAFE65
:105B700003B000BD0D20FBE7B0180020016802460D
:105B80000148FFF7B5BD00BF901800201F207047E7
:105B900030B5184C002325688D4224D165689542A4
:105BA00021D1D0E90225C3F1200405FA04F4A3F1C0
:105BB0002001DA40224325FA01F10A4312F0010FD5
:105BC000C3F12004A3F120020CD1012121FA04F435
:105BD00001FA02F222439940D0E900430C431343F7
:105BE000C0E9004330BD0133DBB21F2B04F10C04CC
:105BF000D1D1F7E734B703002DE9F04100231E4F60
:105C00001D464FF0010C97F808E0BEF1000F20D0C0
:105C10003C688C421DD1A3F12004C3F120082CFA6A
:105C200008F80CFA04F444EA0804D0E902650CFA16
:105C300003F8BAB146EA08062543C0E90265D0E98F
:105C4000006526EA080625EA0405C0E9006531B9C1
:105C5000754601331F2B07F10C07D4D14DB100203D
:105C6000BDE8F08126EA080625EA0405C0E90265D8
:105C7000EDE70720F4E700BF34B7030030B5104B61
:105C800000221C7A9CB11C688C4210D1D0E90235EC
:105C9000C2F12004A2F1200123FA02F005FA04F473
:105CA000204325FA01F1084300F0010030BD013224
:105CB000D2B21F2A03F10C03E3D10020F6E700BFA4
:105CC00034B7030000F1402000F50030002382B01B
:105CD000036003680193019B02B0704708B5094B4C
:105CE000020103EB0010084B4168C3F84813C16878
:105CF000C3F808130089FFF7E5FF044B002199540E
:105D000008BD00BFA8B8030000400240B81800203A
:105D100037B521490122D1E84F3F8DF807309DF872
:105D200007306BB1BFF32F8F1C4BD3F804211C4BF2
:105D300012B91A68D2072CD518680230400826E03C
:105D4000C1E8432F002BE6D1144B0222C3F80823ED
:105D5000BFF35F8FD3F80431114A4BB1136801339D
:105D60001360BFF35F8F4FF48270FFF7ABFF012327
:105D700010680A4C022501304008C4F80453BFF3F0
:105D80005F8F00240C7013B113680133136003B0EC
:105D900030BD1868D2E700BF08190020004002405B
:105DA0000C1900202DE9F04180460E46FFF7B0FFA8
:105DB0000746BFF35F8F084DD5F80445BFF35F8FEB
:105DC000FFF7A6FFC8F80000874218BFD5F80445C2
:105DD0003460BDE8F08100BF0040024037B50446A2
:105DE00001A96846FFF7DEFFDDE9003543F60952F9
:105DF00040F2FF100021E5FB0201400A064A40EA9A
:105E0000C150490AE3FB020124B94FF47A7200231E
:105E100032F0DEFB03B030BD0080841EF8B5194DB2
:105E200005EB0013044606011889FFF74BFF0F46E8
:105E30002046FFF7D3FF37B9134B3344D3E902238E
:105E4000904299411CD33544104B6A68C3F84823EB
:105E5000022CEA68C3F808230AD0032C0CD00A4AA3
:105E6000012393550A4A1370BDE8F84000F0F7BFCC
:105E7000BDE8F8402BF0C0BEBDE8F8402BF0ECB90F
:105E8000F8BD00BFA8B80300B818002000400240C9
:105E9000F81800202DE9F0413D4D3E4E05EB021C67
:105EA0001401DCF80C70C6F80873DCF80470C6F84E
:105EB0004473D3E90063B04263D9861B002E00DA35
:105EC000013B0026401846EB060703EB070C311890
:105ED00032B94FF47A7303FB0CF0A1FB031C84442A
:105EE0002D4B480B40EACC404FEA5C36A0FB030E3A
:105EF00003FB06EE000F40EA0E104FEA1E7E43F64B
:105F000009534FEA4E2646EAD0564702A0FB030843
:105F1000091A03FB0E8E6CEB0E0C40F23140DFF8D9
:105F200080E048430EFB0C00A1FB0E1E01397044BB
:105F300047F6FF7140EB0100C00BC01946F10007A6
:105F400020F07F46A0FB030103FB071140F2FF1383
:105F5000C01841F10001400A40EAC150490A22B983
:105F60004FF47A72002332F033FB0C4B094A23447E
:105F7000C3E902012B5903F5A87342F82360BDE879
:105F8000F0819ED2361A002EB8BF013399E700BFC8
:105F9000A8B8030000400240D07B6308B818002076
:105FA0007B2DE8BDF0B585B006460F46684601A9D1
:105FB0001446FFF7F7FEDDE9003543F6095240F2DB
:105FC000FF100021E5FB0201400A254A40EAC150CA
:105FD000490AE3FB020124B94FF47A72002332F03C
:105FE000F7FACDE9020102AB224639463046FFF707
:105FF00051FF1C4BD3F804359D4203D001A96846DC
:10600000FFF7D0FEDDE9003243F60955023240F2D7
:10601000FF100021E2FB0501400A114A40EAC1508D
:10602000490AE3FB020124B94FF47A72002332F0EB
:10603000CFFA0D4B03EB0413D3E9022390429941AD
:1060400006D301212046FFF7E9FE40BF05B0F0BDB1
:10605000064B03EB0413DA68024BC3F80423F5E79D
:106060000080841E00400240B8180020A8B8030039
:1060700038B51E484022002132F0D0FE1C4B0020D3
:1060800018601C4B18701C4B00240025C3E9004508
:106090002EF072FD2EF0AEFD0028FBD0174B1849F4
:1060A000C02283F824231022C3F884215A60154AA1
:1060B0000023C2F808354FF48270FFF703FE022375
:1060C000C2F844330424C2F804330889FFF7FAFD08
:1060D0004B68C2F84833013CCB68C2F8083301F181
:1060E0001001F2D10123136038BD00BFB8180020A1
:1060F0000C190020081900200019002000E100E020
:10610000A8B80300004002402DE9F04100250B4EE5
:106110000746A8460A4C86F80080237C1BB1384607
:10612000257402F07BFF23781BB13846257002F0FE
:1061300041FF3378002BEDD1BDE8F081F818002045
:10614000B81800200120FFF749BE08B5FFF7FAFF95
:106150004FF47A72002332F03BFA08BD084611462C
:106160000022FFF71FBF0020FFF7B8BD08B5FFF7FB
:10617000E9FF08BD084611460122FFF713BF0120C1
:10618000FFF7ACBD70477047044B4FF48022C3F853
:106190000823BFF34F8FBFF36F8F7047004002405B
:1061A000024B4FF48022C3F80423704700400240A2
:1061B000FFF7DCBF1F2070470222FFF7F3BE02206B
:1061C000FFF78CBD7FB5134E134D694601A8FFF74D
:1061D000E9FDDDE9004343F6095140F2FF100022DA
:1061E000E4FB0102400A40EAC250520AE3FB060205
:1061F000CDE9020202AB03223E21FFF74BFE4FF432
:106200000023C5F80433D5F804359C42DDD104B031
:1062100070BD00BF0080841E0040024037B50446B8
:1062200003200D46FFF7DAFD6B46CDE9000103229E
:1062300029462046FFF72EFE034B4FF40022C3F8F9
:10624000042303B030BD00BF004002400320FFF72D
:1062500045BD0000144A1549012310B553600424BC
:106260000889FFF72FFD4B68C2F84833013CCB6823
:10627000C2F8083301F11001F2D10223C2F8083349
:106280004FF48270C2F84833FFF71CFDFFF7DEFFC2
:10629000074B1022C3F88420C3F8842183F82443D9
:1062A000BDE810402EF092BC00400240A8B80300A8
:1062B00000E100E0004870474C410240014B986B00
:1062C000704700BFB8180020114BD3F8042170B5F7
:1062D00022B10222C3F80823FFF71AFD0D4D0C4E20
:1062E0000024D6F80423EB681A420AD02B8903F164
:1062F000402303F500331B681BB10021E0B2FFF718
:106300008DFD0134042C05F11005EAD170BD00BFEC
:1063100000400240A8B80300FFF714BF28207047D0
:10632000704770474FF08043044AD3F8001411605F
:106330004FF0FF32C3F80024704700BF141900204B
:106340007047000008B500F052FF0A4B187018B1F2
:10635000094B04221A6008BDBFF34F8F0749084B51
:10636000CA6802F4E0621343CB60BFF34F8F00BFF3
:10637000FDE700BF101900201419002000ED00E017
:106380000400FA050B4B1B68D9070BD49A070BD4F2
:1063900059070BD41A070BD413F4F81F14BF0620A7
:1063A0000020704701207047082070470220704786
:1063B0000320704714190020704700000123094A88
:1063C00082B003FA00F052E8003F0193019B23EAF8
:1063D00000030193019B42E800310029F3D102B090
:1063E000704700BF60190020074A82B052E8003FA2
:1063F0000193019B23F001030193019B42E80031CB
:106400000029F3D102B07047601900200123094A26
:1064100082B003FA00F052E8003F0193019B03436E
:106420000193019B42E800310029F4D102B000F051
:1064300016BD00BF60190020F42382B00B70CE237C
:106440004B7036238B704FF080531A6E5B6EC1F821
:106450000330CA7102B0704707B501A8ADF8041047
:106460002AF07FFF03B000BD054B01F1080010F8D2
:10647000012D03F8012B8842F9D12AF074BF00BF27
:10648000C019002007B501A8ADF804102AF06DFF6F
:1064900003B000BD124B012210B51A70114B7F22C0
:1064A0001A70114B114A1A60114ADA60114A00231E
:1064B0001370114A1C4642F823400A33A02BFAD12C
:1064C00010227F210D4832F0A9FC0D48282200211E
:1064D00032F0A4FC0B4B1C60BDE810402AF054BF06
:1064E000F11C00206F190020481A0020C919002053
:1064F000B0190020F01C0020701A00207019002034
:10650000881900205819002008B52AF081FF2AF0C8
:1065100060FF024B00221A6008BD00BF6019002016
:1065200008B50C4B1B7883B92AF066FF04280ED0FF
:1065300004D8022814BF0220012008BD0638C0B2CA
:10654000022834BF03200220F7E70020F5E70320EC
:10655000F3E700BFF11C0020034B1A7812B10020B2
:10656000187070470D207047F11C002010B5084CC2
:1065700023784BB9FFF7D4FF012803D0054B1B68E4
:10658000DB0703D501232370002010BD0D20FCE79D
:10659000F11C00206019002008B52AF03CFF28B942
:1065A00000F0A7FDFFF720FF002008BD0020FFF747
:1065B0001BFFFFF72BFFF7E70B68F7B58A8803F897
:1065C000012C07460C462AF017FF022801D100F0E3
:1065D0008FFD204600F0ADFC90B1204600F0B0FCED
:1065E00070B1237F9B070BD41E4B2046197800F017
:1065F000C3FC1D4B196820464A1C1A6000F0BEFC03
:106600006369A07953B12568009022690121681E51
:106610002AF01AFF18B30025012613E02AF087FE9E
:10662000257F15F0040507D0207E2AF04BFF206857
:1066300001382AF049FFEEE72068294601382AF0A0
:10664000F8FE0646FFF7D0FE384621460BF00BF960
:1066500016B90220FFF7DAFE284603B0F0BD0D257B
:10666000DAE700BF541900205C1900200048704789
:10667000481A002008B5064B4FF4206043F0010390
:1066800098472AF0F0FEBDE808402AF0EEBE00BFB1
:10669000F0B80300FB2070472AF0F7BE08462AF046
:1066A000F6BE08462AF0F5BE07B5ADF8041001A8FD
:1066B00000212AF0F0FE00280CBF0320002003B0C8
:1066C00000BD08B5084601212AF0E5FE00280CBFF0
:1066D0000320002008BD07B5ADF8041001A8002173
:1066E0002AF0E1FE00280CBF0A20002003B000BD04
:1066F00008B5084601212AF0D6FE00280CBF0A2062
:10670000002008BD00202AF0D1BE01202AF0CEBE14
:106710004FF47A7310B55A430A4C0B4B226008466B
:106720001970FFF761FE2AF002FE20682AF095FE3C
:1067300020B10520FFF742FE002010BD0520FFF725
:1067400065FEF9E7681900206519002010B50C46B0
:1067500021B12AF0FFFD2070002010BD0720FCE7CA
:1067600013B50C4661B101A82AF0AAFE054A9DF8AE
:10677000053012785E3B9B1A2370002002B010BDDA
:106780000720FBE76E19002013B50A4B1B78C818C9
:1067900040B210F15E0F0BDB002401942AF0EBFDF8
:1067A0008DF8050001A82AF084FE204602B010BD35
:1067B0000720FBE76E19002021B1034B1B780B70FB
:1067C00000207047072070476E190020F7B50B4C6A
:1067D000064601A80F4694F900502AF071FE9DF874
:1067E0000530227827705E3B9B1A59B23046FFF77E
:1067F000CBFF08B12570072003B0F0BD6E19002053
:10680000F8B50026404C0546374623684BB128466C
:10681000002221460BF01EF82068276001382AF07C
:1068200020FE0136102E04F12804EED1374C2368E7
:106830009B0713D5364E0120FFF7C0FD326835495E
:1068400028460023002A18BF32460BF015F830689E
:1068500020B101382AF005FE0023336023685F076A
:1068600008D50220FFF7AAFD2A490F230022284657
:106870000BF002F823681E0708D50320FFF79EFDE2
:1068800024490E23002228460AF0F6FF2368D80682
:1068900008D50420FFF792FD1F4B00211A782846E7
:1068A0000AF0D8FF2368590608D50620FFF786FDB1
:1068B0001A4B284693F900100AF0EAFF2368DA071A
:1068C00008D52AF0A8FD0546A8B900F012FC284614
:1068D000FFF774FD002523689B0611D5104B18782F
:1068E0002AF025FD0F4B18682AF0B7FD28B9BDE83E
:1068F000F84000F0B4BA0125EDE70520FFF75EFD92
:10690000002DF4D1F8BD00BF701A002060190020DE
:1069100088190020481A0020F01C0020641900206B
:1069200065190020681900202DE9F84F2C4C984675
:1069300005468A4693460027282303FB07F909EBFF
:10694000040654F80910002940D12822304632F0BC
:1069500065FA6B1C44F809302B78B38086F815A0D3
:1069600086F816B02AF0F2FCB0716A78DFF88090F1
:1069700012F0200231D1282303FB07440027E37DD6
:1069800062F30003E3752A78404639462AF0F6FCA4
:10699000C4E902016B7889F8007013F0200F114DE3
:1069A0000ED0304600F0BAFA50B1E37D2A7862F397
:1069B0004103E3750C4B1B6823610C4B1B7823755B
:1069C00000232B70BDE8F84F00F049BA0137102FB3
:1069D000B3D1002301351D60FFDE99F80020CAE71E
:1069E000701A0020201900201C19002018190020FE
:1069F00080190020431E092B09D8DFE803F0051693
:106A0000191C1C1C1C051C1C0D4B12221A700D4A53
:106A1000002313700C4A0828137001D005280DD1EB
:106A2000074A00201370FFF7F1BC054B1122EDE778
:106A3000034B1622EAE7024B0122E7E70420F2E7C4
:106A4000F01C0020801900202019002070B5437828
:106A5000254A264EC3F3001100241B078AB00546C1
:106A6000117034702FD5222221460DF1060032F02C
:106A7000D5F96B1C009368462B78ADF8043000F014
:106A80006FFA0546684600F05BFAE0B1DDB1184BDD
:106A90001B789D4219D1174A1368591C1160164A78
:106AA000164C02922360164B29461D70684601233E
:106AB000337000F061FA2168684600F05FFA11490E
:106AC000684600F029FA0AB070BD5A1E954205D1F9
:106AD0000D4A1368591C11600C4AE1E701339D42CD
