:101000000000042091150300B9150300BB1503006F
:10101000BD150300BF150300C1150300000000004B
:10102000000000000000000000000000C3150300E5
:10103000C515030000000000C7150300C915030013
:1010400081150300EDFC020019700000CB150300B0
:10105000CB150300CB150300CB150300CB15030004
:10106000CB150300CB150300CB150300CB150300F4
:10107000CB1503004D6C0000CB150300CB1503000E
:10108000CB150300CB150300CB150300CB150300D4
:10109000CB150300CB150300CB150300CB150300C4
:1010A000CB150300CB150300CB150300CB150300B4
:1010B000CB150300CB15030000000000000000006A
:1010C000CB150300CB150300CB150300CB15030094
:1010D0004D5E0000CB150300CB150300CB150300BC
:1010E000CB150300CB150300CB1503000000000057
:1010F00000000000CB15030000000000CB1503002A
:1011000000000000000000000000000000000000DF
:1011100000000000000000000000000000000000CF
:1011200000000000000000000000000000000000BF
:1011300000000000000000000000000000000000AF
:10114000000000000000000000000000000000009F
:10115000000000000000000000000000000000008F
:10116000000000000000000000000000000000007F
:10117000000000000000000000000000000000006F
:10118000000000000000000000000000000000005F
:10119000000000000000000000000000000000004F
:1011A000000000000000000000000000000000003F
:1011B000000000000000000000000000000000002F
:1011C000000000000000000000000000000000001F
:1011D000000000000000000000000000000000000F
:1011E00000000000000000000000000000000000FF
:1011F00000000000000000000000000000000000EF
:101200000348044B834202D0034B03B11847704795
:10121000B0000020B0000020000000000548064B90
:101220001B1AD90F01EBA301491002D0034B03B1E4
:1012300018477047B0000020B000002000000000F8
:1012400010B5064C237843B9FFF7DAFF044B13B10E
:101250000448AFF300800123237010BDB0000020CC
:1012600000000000047F030008B5054B1BB10549D1
:101270000548AFF30080BDE80840FFF7CFBF00BFCF
:1012800000000000B4000020047F0300A3F5803AB2
:10129000704700BF174B002B08BF134B9D46FFF74D
:1012A000F5FF00218B460F461348144A121A30F0FE
:1012B00055FE0E4B002B00D098470D4B002B00D055
:1012C00098470020002104000D000D48002802D09E
:1012D0000C48AFF3008030F049FE2000290000F0F8
:1012E00013F830F095FC00BF00000800000000007B
:1012F0000000000000000420B000002014F30020D3
:10130000000000000000000070B505460E463146A2
:10131000284605F0A5FB05F0E9FF044628B90B4B6C
:101320000B4A0C48722130F04DFC00F01FF805F01C
:10133000C1FB18B1204605F0E0FFE8E7204606F0C3
:10134000B5F9204605F0BCFBF1E700BF70310300A2
:10135000995003007931030010B50C4605F0F0FEFA
:10136000204610BD00F0FBB800F0F0B810B5044600
:1013700005F0CCFD20460249BDE8104000F048B819
:101380005913000038B50446154600F08FF904F6ED
:10139000DA13C4F8D43904F58E504FF40063A4F87E
:1013A000D83904F6D411C4F8D0591C302AF0F9FB0E
:1013B00004F58F5004302AF055FC04F58F5104F5E4
:1013C00080531C31881DC3F8FC0140F21450A3F86F
:1013D00000020C48C3F81C07002204F58F50A3F844
:1013E000F82183F81827C3F8202704302346064A3B
:1013F0002AF03FFC201D054922462AF00AFD20461E
:1014000038BD00BF25150000391600004914000042
:1014100010B5064C0A4601462046FFF7B3FF00F020
:10142000F9F9A04200D0FEE710BD00BFD0000020B7
:10143000D0F8D42900F6DA139A4204D100F5B85056
:101440001C3007F037BB7047FFF7F2BFF8B5044612
:1014500000F58055201D2AF017FE95F8F83110B1DF
:10146000022B39D00FE0012B4BD0022B34D0002BB4
:10147000F0D1204600F0EAF908B104F05FFD204603
:1014800000F0EEF940B1D4F8D45904F6DA102D1A70
:10149000A9B200293FD1F8BD04F58E501C302AF0C6
:1014A00084FB0028EFD1201D2AF083FE012385F85C
:1014B000F831201D2AF094FEF0B194F8CC70201D74
:1014C0002AF0B4FF2FB194F8CC3013B9012385F87A
:1014D0001837022385F8F83104F58E501C302AF0B5
:1014E0009BFB0028CFD195F8183785F8F801002B21
:1014F000B0D085F81807ADE7201D2AF07AFE85F8F0
:10150000F90104F58E5095F8F9111C302AF056FBBC
:101510000028CED0B7E7D4F8D0399847ADB2A8426A
:10152000B9D0FEE708B500F075F9BDE80840FFF74F
:101530008DBF00F6DA13C0F8D4394FF40063A0F879
:10154000D83900F5B8501C3007F0B4BA08B500F02F
:1015500061F918B1BDE80840FFF7EBBF08BD38B529
:1015600004460D4600F056F940B100F58F502A466A
:1015700021460430BDE838402AF080BB38BD000069
:101580002DE9F0410C46A0B01746984600F072F9DC
:101590002346194A8021684630F04CFB684630F0FB
:1015A0002CFD69460246002001F066F96E460024D3
:1015B000444501D0292C13D124B204EB44040F4933
:1015C0000DEB040030F003FD684630F016FD0DF120
:1015D0000101421E002001F04FF920B0BDE8F0816A
:1015E000A4EB84013B5D064A3046803130F022FB9B
:1015F00001340336DCE700BFCD310300E7310300DF
:10160000E131030038B500F5805400F59055D4F869
:10161000FC3102355B1B9BB251B91A46294600F0DA
:101620006BFF40F21453C4F8FC51A4F8003238BDEB
:101630002A46FFF7A5FFF4E7FFF7E4BF2AF0B8BE9C
:101640001C282ED8DFE800F00F3011132D151719C4
:101650002D2D2D2D1B1D1F212D2D2D272D2D2D2504
:10166000232D2D292B00002070470E2070470B20C2
:1016700070470C20704709207047032070470220F4
:1016800070470420704711207047122070471320C4
:101690007047142070471620704717207047182095
:1016A000704700F580407047012070472DE9F041F8
:1016B0000646044646F8041B4FF4006200F2091186
:1016C00030462AF08BFB0025C4F8846004F18803BF
:1016D00004F1A802C3E9005508339342FAD1C4E9E2
:1016E0002B55A4F8A85004F1B4002AF00FFF414A8A
:1016F0004149C4F8D050C823C4E935234FF6FF73DD
:10170000A4F8DC303D4B0968C4F804114FF0000721
:101710000022C4E938354FF00408002304F51D61A8
:10172000C4E93C23C4E93E2384F8CC70C4F8E850F3
:1017300084F8008184F80851A4F80A59A4F884595F
:1017400084F88779C4F88859C4F89459C4F898592A
:10175000C4F89C59C4F8A059C4F8A459C4F8A859AD
:10176000C4F8AC59C4F8B059C4F8B459C4F8B8595D
:1017700084F8BC79C4F8C05941E90223236803B94D
:10178000FEE71F4B1F491C60224630462AF044FBEF
:101790007822002104F60C1030F0E0FB84F8865922
:1017A00004F68C1084F8097905F046FF22461649A4
:1017B000206805F0A6FD22462068144905F0D9FDF1
:1017C00025462068012105F0DEFD2068414605F030
:1017D00088FD55F8F00B0E4906F0A5F97722002197
:1017E000284603F077FF04F1E00007F063F9204694
:1017F000BDE8F08100F8FF0754780300051C0000E5
:10180000F8170020731C0000E15500007754000019
:10181000832A0000014B1868704700BFF8170020AA
:101820000023C0F8AC39C0F8B039C0F8B439C0F8FA
:10183000B839C0F89439C0F89839C0F89C39C0F864
:10184000A039C0F8A439C0F8A839704790F8003121
:10185000042B1ABF90F8CC0080F0010000207047E4
:1018600090F80031012B06BF90F8CC0080F0010009
:1018700000207047D0F8AC390133C0F8AC3970475C
:101880002DE9F843994690F888390D1E0446904694
:1018900008BF702513B10D20BDE8F8832946F0304C
:1018A00003F08EFF0028F6D194F80A2994F80B393A
:1018B0009A420BD00B22002104F1F00003F00AFF42
:1018C00004F1E00007F0F6F80320E5E704F18407EF
:1018D0002B460622802138462BF07DF860B9D4F8DB
:1018E00084001FFA89F241462AF075FD20B9384676
:1018F0002BF054F80028CFD00328CDD1DAE7000030
:10190000013804289ABF024B185C0020704700BFC2
:101910009E5003002DE9F84311F00F0E01F00F0760
:1019200008D1022A04D11A467146F03003F0D2FEE3
:1019300000200DE090F80B6990F80A89A6EB0804E6
:101940000E2C07DDF0300E22002103F0C3FE032031
:10195000BDE8F883C1F301140519214695F809592A
:1019600075453FD131460E2940D801F2211100EBD7
:10197000C10144F0400402F0030244EA870444EA4F
:1019800002248A8824F08004A40522F45F7222F0E5
:101990000302A40D14438A688C8063F31702013696
:1019A0008A6080F80B69C3E70F3DEDB20E2DFBD8BE
:1019B00005F2211500EBC50595F804C01CF0400F99
:1019C0000CD00CF00309494508D1CCF38309F1454B
:1019D00004D12CF0400C85F804C0C3E708F10108DD
:1019E0005FFA88F84645BDD94546DFE70F39C9B2E9
:1019F000B9E713460222FFF78DBF38B511F0300F5B
:101A000000F1840408BFC0F8D0200023154620460A
:101A100006222AF0E0FF034650B9294620462AF064
:101A200029FF034620B92046BDE838402AF0B6BF5A
:101A3000184638BD2DE9F74304460F46684611465F
:101A40009146984600F048FFDDE9005635B9F107A8
:101A500004D4B8F1000F1AD1424619E04B460622D1
:101A6000394604F184002AF0B6FFC0B97310F207BA
:101A700048BFE35804EB660048BF5D59A84770B9FA
:101A800004F1840003B0BDE8F0432AF087BF0D22C3
:101A90003946204603B0BDE8F043FFF7AEBF03B0C0
:101AA000BDE8F08370B50446002694F80A5994F80E
:101AB0000B39AB4201D1002033E005F2211504EBD4
:101AC000C5021379590616D404EBC5052B7923F00A
:101AD00040032B7194F80A390133DBB20F2B84F8E1
:101AE0000A39E2D194F80B3984F80A690E2B20D810
:101AF00084F80B39D9E7C3F30100C3F383015379A9
:101B0000926841EA001103F0030361F07F01022BA8
:101B1000C9B2C2F3170205D12046FFF76EFF0028B5
:101B2000D2D070BDB3FA83F35B092046FFF782FF82
:101B3000F5E70F3BDBB2D9E72DE9F84F044603F098
:101B400059FDD4E93C32134304D1012384F8BC3954
:101B5000BDE8F88F04F1F00003F0BAFD284F81468C
:101B600000254FF00108EBB24B45EED2D4E93C30F2
:101B7000C5F12001A5F12002EB4000FA01F10B4371
:101B800020FA02F2134313F0010FC5F1200AA5F168
:101B9000200602D10C370135E5E73A682ABBD7F8B1
:101BA00004B0BBF1770F06D1206804F0ADF9082826
:101BB00098BF00F1700B5A4680212046FFF71DFFA9
:101BC0000028C2D1D4E93C3208FA06F628FA0AFA0B
:101BD00046EA0A0608FA05F123EA010322EA0602A8
:101BE000C4E93C321343D5D1AFE794F8BC39002B9C
:101BF000E8D0012380212046FFF71CFFE0E700BF6B
:101C0000A05C0300014B1868FFF796BFF81700208F
:101C100090F8CC3010B5044633B1D0F804318B4283
:101C200004BF002380F8CC302046FFF73BFFF8B913
:101C300094F8081199B101230C222046FFF7FAFE0F
:101C4000B0B994F8003184F80801042B07D0201DA6
:101C50002AF018FA0123C4F8040184F8CC30204695
:101C600003F0CCFB20B92046BDE81040FFF764BF6D
:101C700010BDFFF7CDBFF8B505468430069EBDF810
:101C80001C702AF0A8FE034668B9D5F884003A46CD
:101C900031462AF0A0FB034628B905F18400BDE8CF
:101CA000F8402AF07BBE1846F8BD2DE9F04F042B12
:101CB00087B004460F46904602D0052B16D0FEE7AB
:101CC000114604A800F020FEDDE904654FF0070A84
:101CD00005F0010B9EB9BBF1000F10D10D22394662
:101CE0002046FFF786FE07B0BDE8F08F114604A836
:101CF00000F016FE4FF0080ADDE90465E8E704F19C
:101D0000B4002AF03BFD0DF10A0203A904F1B4006E
:101D10002AF0DEFC04F1B4002AF037FD002384F839
:101D2000883904EB65006B10BBF1000F01D0E3585C
:101D30009E59B0470123054684F8883918B1FFF74A
:101D40007FFC0246CBE7BDF80A300193039B00936A
:101D50005246434639462046FFF78DFF0028C2D041
:101D60002A46BCE708B50022FFF743FE08BD000085
:101D700013B50223B0F8BA208DF80730B0F8BC30A4
:101D80009A42044606D00DF10701B4302AF0D6FB82
:101D900000B1FEE7206805F0B2FA2068002105F0E6
:101DA000C4FD2068002105F0B5FA024B0020186040
:101DB00002B010BDF8170020D0F8840000212AF0EE
:101DC000F7BA10B50446006805F026FB0146D4F8C2
:101DD0008400BDE81040FFF731BC13B50023044672
:101DE00001A9B43001932AF028FC20B99DF8041011
:101DF000206805F016FB02B010BD10B5044600685F
:101E000005F0ABFB410001F0FE01D4F88400BDE811
:101E10001040FFF713BC13B5002304460DF1070172
:101E2000B4308DF807302AF089FB58B99DF8073097
:101E300023B1013B012B07D9072003E001462068AD
:101E400005F092FB02B010BD0121F8E713B504467E
:101E50000DF10701B4302AF081FB20B99DF807107D
:101E6000206805F0B6FB02B010BD10B5044654F86A
:101E7000840B05F029FB01462046BDE810402AF0FE
:101E800091BC13B504460DF10601B4302AF085FB70
:101E900020B9BDF80610206805F01BFB02B010BD8C
:101EA00010B50446006805F0EFFA08220146D4F8A0
:101EB0008400BDE810402AF08EBA13B5082204460B
:101EC00001A9B4302AF0D0FB18B90199206805F0B7
:101ED000DFFA02B010BD10B5044654F8840B05F0CB
:101EE0001CFB01462046BDE810402AF05BBC90F880
:101EF0008B390344D0F8840093F886192AF058BA35
:101F000013B5002304460DF10701B4308DF80730F6
:101F10002AF024FB30B994F88B391C449DF8073023
:101F200084F8863902B010BD7FB5054602A9B430E9
:101F30002AF05FFB044638BB01A905F1B4002AF082
:101F400040FB044600BB0DF1030105F1B4002AF08B
:101F5000F5FA0446C0B9286804F060FCDDE9022304
:101F6000904271EB030612D2121A63EB01036FF079
:101F70000101914274EB030309D3019B9DF8031007
:101F8000286804F0FAFC0446204604B070BD07241B
:101F9000FAE710B50446006804F0AEFC0146D4F838
:101FA0008400BDE81040FFF749BB10B50446006847
:101FB00004F0A8FC0146D4F88400BDE81040FFF707
:101FC0003DBBF8B505460F460024012606FA04F38A
:101FD0003B4204D10134202CF8D10020F8BDD5F8C3
:101FE0008400E1B2FFF72AFB0028F3D0F6E7F7B54B
:101FF000002304460D460127B4F8BA202B60B4F83C
:10200000BC309A4202D1002003B0F0BD0DF10701AF
:1020100004F1B4002AF092FA0028F5D19DF80730B7
:102020001F2B04D82A6807FA03F31343E4E70720B9
:10203000EAE7D0F8D410FFF7C4BF13B5002301A915
:1020400004460193FFF7D3FF10B9019BC4F8D430C5
:1020500002B010BDB0F8D81084302AF0A3BB00F154
:10206000D801B4302AF099BA10B50446006805F0DA
:102070009AFA80B9206805F0A1FA70B9206805F0D5
:102080007EFC00280CBF00210321D4F88400BDE8A9
:102090001040FFF7D3BA0121F7E70221F5E700006E
:1020A00010B586B0044600230DF11701B4308DF849
:1020B00017302AF043FA40B99DF81700032803D8D7
:1020C000DFE800F003050F190C2006B010BD0094E6
:1020D000114BB4F8D820D4F8D410206805F05EFA7B
:1020E000F3E700940D4BB4F8D820D4F8D41020684E
:1020F00005F05FFAE9E7084B0294019394F8DB30AE
:10210000009394F8DA30B4F8DC20D4F8D4102068C6
:1021100005F022FCD9E700BF2B53000091530000CB
:102120002DE9F8430546F03003F0D2FADFF850907D
:10213000064600244FF00C0805F18407E3B29E42E6
:1021400001D8002019E0D5E93E30C4F12001A4F106
:102150002002E34000FA01F10B4320FA02F213439C
:10216000DB0701D40134E9E708FB04F3384659F8EA
:1021700003102AF07FFB0028F4D0BDE8F88300BFED
:10218000A05C0300F7B500230022C0E93E2304460B
:1021900000F1F007B4F8BA20B4F8BC309A4203D189
:1021A0000025284603B0F0BD01A904F1B4002AF0CF
:1021B00044FA054628B901990122384603F0BEFACF
:1021C000E8E7012341F2080280212046FFF732FCB4
:1021D000E7E713B5044601A9B4302AF02EFA28B96E
:1021E0000199012204F1F00003F0A8FA02B010BD39
:1021F00013B5044601A9B4302AF01FFA28B90246E3
:10220000019904F1F00003F099FA02B010BDD0F882
:10221000D01084302AF02EBB10B500F184040421C4
:1022200020462AF027FB28B920460321BDE81040AC
:102230002AF020BB10BD032184302AF01BBB0021F3
:1022400084302AF017BB10B500F184040521204624
:102250002AF010FBA0BB0C2120462AF00BFB78BB18
:10226000182120462AF006FB50BB202120462AF0E8
:1022700001FB28BB352120462AF0FCFA00BB3621A1
:1022800020462AF0F7FAD8B90E2120462AF0F2FAB1
:10229000B0B94FF4027120462AF0ECFA80B94FF43D
:1022A000017120462AF0E6FA50B9302120462AF082
:1022B000E1FA28B920463121BDE810402AF0DABA07
:1022C00010BD10B5044605F021F8014604F1840064
:1022D000BDE810402AF009BBD0F884000121FFF7C7
:1022E000ADB9D0F884000021FFF7A8B9D0F8840078
:1022F0000421FFF7A3B90C20704713B504466946C3
:10230000006805F0DBF8D4F88400082269462AF05A
:1023100062F802B010BD022184302AF07DBB90F833
:102320000011D0F88400FFF789B9000073B50446A6
:102330000E46B4300DF107012AF000F9054690BBB6
:102340009DF80730022B1FD003D9DA1E012A88BF5F
:10235000032384F80031002384F808310C22012380
:1023600031462046FFF766FB94F80031042B17D066
:1023700060B9201D29F086FE0123C4F8040184F809
:10238000CC30284602B070BD0123E2E70A4B1B683F
:10239000C4F80431012384F8CC3084F80861F0E7F4
:1023A0000028EED0F9E7FFF74BF931460246204608
:1023B000FFF723FB0546E4E75478030073B50446B2
:1023C0000D4668461146164600F092FADDE90030E7
:1023D00000F0010283B97AB90C2E06D00D222946ED
:1023E0002046FFF706FB02B070BD2946204602B02A
:1023F000BDE87040FFF79ABF002184F888194110AA
:1024000004EB60000AB16258D3589847012284F85F
:10241000882938B933462946204602B0BDE87040C5
:10242000FFF778BAFFF70CF90246D8E773B5002337
:1024300004460D46B43001A9164601932AF0FDF872
:10244000024640B1FFF7FCF8294602462046FFF756
:10245000D0FA024604E0032E15D004D8022E0CD088
:10246000104602B070BD331F012BF9D8019A3346D4
:1024700029462046FFF719FCEBE7019B2946204639
:10248000FFF748FAE5E7019A29462046FFF796FF4D
:10249000DFE773B505460E46B43001A92AF0CDF842
:1024A0000446A0B9019A0B2A1ED8DFE802F0060CF8
:1024B000131313131D1D1D23182331462846FFF740
:1024C00051FC044603E031462846FFF751FC204604
:1024D00002B070BD31462846FFF7A8FFF1E731464C
:1024E000284600F0EBFEECE7052231462846FFF7D0
:1024F00080FAE6E70C24EAE773B50123044680F886
:1025000088390026B4308DF807602AF00CF80423CF
:1025100084F8003184F8CC600DF1070104F1B400B7
:102520002AF00CF898B99DF907309DF807108342FE
:102530000DDAD4F8B0390133C4F8B039C1F301135E
:1025400084F88B3943B106222046FFF756FA002360
:1025500084F8883902B070BD2368002BF3D0204680
:10256000FFF797FF38B1FFF76BF89DF807100246A9
:102570002046FFF73EFA94F80B2994F80A399A425C
:1025800002D02046FFF78EFA94F88B299DF8073089
:10259000224403F00F0392F8091931B199421EBF8A
:1025A000D4F8B4190131C4F8B4190F2B14BF013396
:1025B000012382F80939CAE7F8B50546F03003F07F
:1025C00087F80A4C074600268435F3B29F4201D8AB
:1025D00000200AE0237A13B90C340136F5E72168AC
:1025E00028462AF047F90028F6D0F8BDA05C030081
:1025F00010B50446006803F009FEC1B2D4F88400A7
:10260000BDE81040FFF71AB810B50446006804F0A2
:10261000CFF8C1B2D4F88400BDE81040FFF70EB87F
:1026200010B50446006804F0F7FE90B10A280AD8F5
:102630000A494FF4FA6210FB021104F18400BDE86C
:1026400010402AF0BEB8192805D8054941F2883251
:10265000F1E70449F1E70021EFE700BF40CB0D00AF
:10266000B0DB2300CC3F0D0013B504460DF107018C
:10267000006803F041FE38B99DF80710D4F88400D3
:10268000FEF7DCFF02B010BDFEF7DAFF014604F1F1
:1026900084002AF0C1F9F5E713B5002304460DF1D3
:1026A0000701B4308DF8073029F06BFF20B99DF990
:1026B0000710206803F034FE02B010BD13B50446C5
:1026C0000DF10701006803F00DFE38B99DF8071001
:1026D000D4F88400FEF7B2FF02B010BDFEF7B0FFE1
:1026E000014604F184002AF097F9F5E713B50023B9
:1026F00004460DF10701B4308DF8073029F041FF91
:1027000020B99DF90710206804F04EF902B010BD01
:1027100013B504460DF10701006803F019FE38B93E
:102720009DF80710D4F88400FEF788FF02B010BDB2
:10273000FEF786FF014604F184002AF06DF9F5E703
:1027400013B5002304460DF10701B4308DF80730AE
:1027500029F017FF20B99DF90710206803F002FE49
:1027600002B010BD37B504460DF10601B43029F0B2
:10277000E5FE68B90DF1070104F1B40029F001FF8D
:1027800030B99DF907209DF80610206804F01EF965
:1027900003B030BD13B504460DF1060154F8840BA7
:1027A00004F02CF930B9BDF80610204629F0FAFFE4
:1027B00002B010BDFEF744FF014620462AF02CF976
:1027C000F6E713B504460DF10601B43029F0E5FE35
:1027D00020B9BDF80610206804F01CF902B010BD45
:1027E000FEE7FEE710B5044604F006FFFFF788F8A1
:1027F0000146D4F88400BDE81040FEF71FBF37B58E
:10280000002300220446CDE9002303F060FA694664
:10281000054604F1B40029F0ECFE60B9DDE90032B0
:10282000AB4272F1000108D35B1B62F10002C4F8F5
:10283000C839C4F8CC2903B030BD0720FBE700F548
:102840001D6353E90223843029F0DABF10B5044632
:10285000006804F002FE01462046BDE81040FFF784
:10286000B0BB10B5044600680EF0B0FC014620462F
:10287000BDE81040FFF7A5BB1346064A10B4044656
:10288000106820B10A46214610BCFEF7F9BF0D20A2
:1028900010BC7047F8170020F0B5013A04460C262A
:1028A000002090420DD370430A1809588B420BBF89
:1028B000D2E901010023C4E90001C4E90033204644
:1028C000F0BD85186D0806FB05F7CF599F4234BF50
:1028D000681C2A46E5E7000010B50B46044603498C
:1028E0009F22FFF7D9FF204610BD00BF64540300AC
:1028F00010B50B46044603494722FFF7CDFF20469B
:1029000010BD00BF1051030010B50B46044603492B
:102910000422FFF7C1FF204610BD00BFE0500300B6
:1029200010B50B46044603490522FFF7B5FF2046C4
:1029300010BD00BFA450030029F03ABD29F038BDF6
:10294000F8B5054691F829000C46C0F38002C0F3A3
:10295000400100F0010000F0E3FB08220746214699
:10296000D5F8840029F037FD0346B8BB218B05F16B
:10297000840029F017FF034680BBA16805F184009D
:1029800029F01FFF034648BBE16805F1840029F0E8
:1029900018FF034610BB217FD5F88400FFF7CCFF5A
:1029A0000346D8B9617FD5F88400FFF7C5FF034619
:1029B000A0B9A17FD5F88400FFF7BEFF034668B930
:1029C000D5F884003946FFF7B7FF034630B9E17FF9
:1029D000D5F88400BDE8F840FFF7AEBF1846F8BD53
:1029E0002DE9F8430446164604292BD8DFE801F008
:1029F0002C252A2E030041F20B550827294604F105
:102A0000F00002F0DDFEE8B92B463A46802104F1E1
:102A1000840029F0E0FFF8B1522D02D1012384F89F
:102A2000893904F1F0000B22002102F053FE04F179
:102A3000E000BDE8F84306F03DB8082796F83130CD
:102A40001B0707D5BDE8F8830727F7E741F20B55C9
:102A50000727D3E75225D1E7522D204606F108017A
:102A60000AD1FFF76DFF0028D8D104F1840029F0C6
:102A700095FF0028E6D0CFE700F058FB0028F4D0FF
:102A8000CFE738B50D460446FEF7C4FE2A46214678
:102A9000BDE83840FFF7A4BF10B50446006804F055
:102AA000A9FF0146D4F88400BDE81040FFF744BFF9
:102AB00010B50446006804F007FF0146D4F884000E
:102AC000BDE81040FFF738BFF0B504468DB00646AC
:102AD00054F8840B04F075FF00250746A9B28F4215
:102AE00001D8002018E030686A4604F0D4FF08B12D
:102AF0000135F3E79DF829301B07F9D4204629F06A
:102B00000CFF48B969463046FFF71AFF20B9204646
:102B100029F022FF0028EBD00DB0F0BDF0B505463E
:102B200087B0044655F8840B04F0D2FF0026074610
:102B3000206801AAF1B204F0CDFF30B10136F3B242
:102B40009F42F5D2002007B0F0BD9DF81430DB079E
:102B5000F4D5284629F0E1FE0028F4D1D4F8840009
:102B6000082201A929F037FC0028ECD1BDF80C108F
:102B7000284629F017FE0028E5D19DF80E10D4F85C
:102B80008400FFF7D9FE0028DDD19DF80F10D4F89E
:102B90008400FFF7D1FE0028D5D19DF81010D4F89D
:102BA0008400FFF7C9FE0028CDD19DF81110D4F89C
:102BB0008400FFF7C1FE0028C5D19DF81210D4F89B
:102BC0008400FFF7B9FE0028BDD19DF81310D4F89A
:102BD0008400FFF7B1FE0028B5D19DF81410D4F899
:102BE0008400C1F34001FFF7A9FE0028ABD12846BD
:102BF00029F0B2FE0028A1D0A5E72DE9F041054655
:102C000092B00646002455F8840BADF8064004F057
:102C1000D8FE07461FFA84F8474501D8002034E063
:102C2000306806AA414604F036FF08B10134F1E7E6
:102C30009DF841301B07F9D4284629F06EFE20BBD1
:102C4000D6F88400082206A929F0C5FBE8B9BDF82A
:102C50003010284629F0A6FDB8B9ADF80600306856
:102C600002AB0DF10602414604F01AFF28B12846D6
:102C700029F072FE0028D9D007E0D6F8840010228F
:102C800002A929F0A8FB0028E9D012B0BDE8F08124
:102C900010B50446006804F09EFE0146D4F8840096
:102CA000BDE81040FFF74ABE13B504460DF1070119
:102CB000B43029F053FC20B99DF80710206804F0C7
:102CC0008FFE02B010BD10B50446006804F034FC5D
:102CD0000146D4F88400BDE81040FFF72DBE37B59B
:102CE00005460DF10701B43029F028FC044620B94F
:102CF0009DF80710286804F024FC204603B030BD7E
:102D000010B5044654F8840B04F0A0FD014620469B
:102D1000BDE8104029F0E9BD13B5044601A9B4305F
:102D200029F0B8FC18B90199206804F093FD02B0AD
:102D300010BD1FB504466946006804F0D5FED4F8FE
:102D400084001022694629F046FB04B010BD13B57B
:102D5000002304460DF1020201A9B430019329F0C9
:102D6000B7FC38B9BDF80230102B05D101992068A5
:102D700004F0BFFE02B010BD0620FBE710B504460C
:102D8000006804F01EFEC1B2D4F88400BDE8104013
:102D9000FFF7D2BD13B5002304460DF10701B4308F
:102DA0008DF8073029F0CAFB20B99DF8071020687C
:102DB00004F00CFE02B010BD10B50446006804F02B
:102DC00037FE0146D4F88400BDE81040FFF7B4BDDB
:102DD00037B5002305460DF10701B4308DF80730F3
:102DE00029F0ACFB044620B99DF80710286804F0D0
:102DF00024FE204603B030BD10B50446006804F040
:102E000036FE0146D4F88400BDE81040FFF794BDBB
:102E100037B5002305460DF10701B4308DF80730B2
:102E200029F08CFB044620B99DF80710286804F0AF
:102E300023FE204603B030BD10B50446006804F000
:102E400020FE0146D4F88400BDE81040FFF774BDB1
:102E500037B5002305460DF10701B4308DF8073072
:102E600029F06CFB044620B99DF80710286804F08F
:102E70000DFE204603B030BD10B5044654F8840B57
:102E800004F0C2FD01462046BDE8104029F099BC7F
:102E900037B50023054601A9B430019329F091FB11
:102EA000044618B90199286804F0B3FD204603B020
:102EB00030BD10B50446006804F0B0FD0146D4F8FA
:102EC0008400BDE81040FFF737BD37B50023054645
:102ED0000DF10701B4308DF8073029F02FFB0446BF
:102EE00020B99DF80710286804F09DFD204603B026
:102EF00030BD10B5A2B004466946006804F0E6F99A
:102F000028B96946204600F066FD22B010BDFEF7E4
:102F100097FB014604F1840029F07EFDF5E737B503
:102F200005460DF10701B43029F008FB044620B92D
:102F30009DF80710286804F062FD204603B030BDFC
:102F400090F88A19D0F88400FFF7F6BC10B500F6A7
:102F50008A110446B43029F0F1FA30B994F88A198C
:102F60002068BDE8104004F040BD10BD37B50546EF
:102F70000DF10701B43029F0E1FA044638B99DF8A3
:102F80000710286804F05EFD0D2818BF044620468F
:102F900003B030BD70B500268EB0CDE901660446A1
:102FA000206801AA03A904F09AFD002840F08D8052
:102FB00004F1840029F0B1FC70BBD4F88400102225
:102FC00003A929F008FA38BBBDF81C1004F18400ED
:102FD00029F0E8FB00BBD4F88400F1B2FFF7ACFCA9
:102FE000D0B99DF81E30032B09D8DFE803F0021793
:102FF000191B0021D4F88400FFF79EFC60B904F18E
:10300000840029F08AFC38B99DF81E3063B104F1C0
:10301000840029F0A1FC08B30EB070BD0121E9E7DE
:103020000221E7E70321E5E79DF81F10D4F88400AB
:10303000C1F38001FFF782FC0028EDD1089904F16B
:10304000840029F0BEFB0028E6D1D4F884001022C9
:1030500009A929F0C0F90028D9D0DDE704F18400DE
:1030600029F05BFC0028D7D19DF81E306BB904F124
:10307000840029F071FC0028CED104F1840029F0ED
:103080006BFC013600288BD0C6E79DF81F10D4F8E2
:10309000840001F00101FFF751FC0028BCD19DF82C
:1030A0001F309B074CBF0146BDF8341004F184006B
:1030B00029F078FB0028AFD1BDF8361004F1840068
:1030C00029F070FB0028D2D0A6E70020A4E710B5B5
:1030D000044654F8840B04F09EF801462046BDE8EF
:1030E000104029F05FBB37B505460DF10601B4303D
:1030F00029F053FA044620B9BDF80610286804F0F8
:103100008FF8204603B030BD29F065B91022FFF7D3
:10311000FBBF29F04DB929F04BB9002202F0DABA11
:1031200042EA410242EAC000C0B270472DE9F843CA
:1031300091F826700546843007F00108C7F340096E
:103140000C46C7F3800729F0E8FB00284CD1D5F8DE
:10315000840008222146FFF7D7FF002844D1218AA6
:1031600005F1840029F01EFB00283DD1A16805F17E
:10317000840029F026FBB8BB217FD5F88400FFF737
:10318000C8FF88BB617FD5F88400FFF7C2FF58BB3A
:1031900049463A464046FFF7C3FF0146D5F884004A
:1031A000FFF7B7FF00BB94F82610D5F88400C1F3F1
:1031B000C001FFF7B0FFB8B9616905F1840029F0DB
:1031C00000FB88B9A16905F1840029F0FAFA58B921
:1031D000A17FD5F88400FFF79CFF28B905F1840092
:1031E000BDE8F84329F0B8BBBDE8F88330B585B039
:1031F000044601A9006804F009F8C8B9BDF8041034
:1032000004F1840029F0CEFA90B9BDF8061004F15B
:10321000840029F0C7FA58B9029904F1840029F012
:10322000D0FA28B99DF80C10D4F88400FFF771FF8C
:1032300005B030BD10B5044654F8840B04F063F9B2
:1032400001462046BDE8104029F0BBBA13B504463C
:1032500001A9B43029F0B5F918B90199206804F032
:1032600057F902B010BD10B50446006804F05AF9D1
:103270000146D4F88400BDE81040FFF74ABF37B5D7
:1032800005460DF10701B43029F058F9044620B97C
:103290009DF80710286804F04AF9204603B030BDB5
:1032A00013B5002301A904460193FEF7A0FE18B947
:1032B0000199206804F0D6F802B010BD70B504463C
:1032C00000680D4604F020F8FEF7BAF929460346D7
:1032D00002222046BDE87040FEF71CBB10B5044634
:1032E000006803F0ACFF0146D4F88400BDE810404C
:1032F000FFF711BF10B50446006804F017F8014647
:10330000D4F88400BDE81040FFF705BF13B50023D3
:1033100004460DF10701B4308DF8073029F01EF98D
:1033200020B99DF80710206803F0F4FF02B010BD2B
:1033300010B50446006804F0BDFA011E18BF012153
:10334000D4F88400BDE81040FFF7E5BE73B5002354
:1033500005460DF10701B4308DF8073029F0FEF86D
:10336000044688B928689DF8076004F0A3FA001B9A
:1033700018BF0120B04207D09DF80730286833B14C
:10338000012104F0D2FA0446204602B070BD214665
:10339000F7E7000010B50446006804F08BFA042833
:1033A00096BF044B0021195CD4F88400BDE810409E
:1033B000FFF7AFBED85B030013B50023044601A995
:1033C000B430019329F039F948B9019B032B06D891
:1033D000DFE803F0020F070B206804F05CFA02B08C
:1033E00010BD206804F037FBF9E7206804F039FBD2
:1033F000F5E7206804F054FAF1E710B5044654F8F4
:10340000840B04F0FFF901462046BDE8104029F086
:103410006CBA13B50023044601A9B430019329F016
:1034200039F918B90199206804F0F0F902B010BD1B
:1034300010B50446006804F050F908220146D4F89B
:103440008400BDE81040FFF75FBE13B500230446BB
:103450000DF1020201A9B430019329F039F938B90C
:10346000BDF80230082B05D10199206804F039F924
:1034700002B010BD0620FBE71FB504466946006890
:1034800004F07BF9D4F8840010226946FFF73CFE73
:1034900004B010BD13B5002304460DF1020201A9CA
:1034A000B430019329F014F938B9BDF80230102B6B
:1034B00005D10199206804F065F902B010BD06201D
:1034C000FBE710B5044654F8840B04F0CFF901462D
:1034D0002046BDE8104029F074B937B5054601A96A
:1034E000B43029F06EF8044618B90199286804F040
:1034F000C2F9204603B030BD10B5044654F8840B21
:1035000004F0EAF901462046BDE8104029F059B917
:1035100010B5044654F8840B04F0B3F90146204674
:10352000BDE8104029F04DB937B5054601A9B430C2
:1035300029F047F8044620B9BDF80410286804F0C3
:10354000A5F9204603B030BD10B50446006804F06C
:103550009BF80146D4F88400BDE81040FFF7D9BDC0
:1035600010B50446006804F097F80146D4F88400CA
:10357000BDE81040FFF7CDBD30B5C3B00546FF2311
:103580008DF8073002AA0DF107030021006804F04E
:1035900067F89DF80720D5F8840002A9FFF7B4FD6D
:1035A00043B030BD30B5C3B00546FF238DF80730BA
:1035B00002AA0DF107030121006804F051F89DF8FB
:1035C0000720D5F8840002A9FFF79EFD43B030BD67
:1035D00010B50446006804F072F90146D4F884007E
:1035E000BDE81040FFF795BD1FB504466946006869
:1035F00004F091F830B9D4F884006946FFF786FDED
:1036000004B010BDFEF71CF8014604F1840029F057
:1036100003FAF5E730B587B0044601A9006804F065
:1036200068F900284CD19DF814309B0742D50DF164
:103630000201206804F062F90DF10301206804F032
:103640006AF9D4F88400082201A9FFF75DFD78BB70
:10365000BDF80C1004F1840029F0A4F840BB9DF8DB
:10366000131004F1840029F0ACF808BB9DF8021097
:10367000D4F88400FFF74DFDD0B99DF80310D4F8BD
:103680008400FFF746FD98B99DF81110D4F8840026
:10369000FFF73FFD60B99DF81210D4F88400FFF7E2
:1036A00038FD28B99DF81510D4F88400FFF731FDD6
:1036B00007B030BD142104F1840029F0ADF9F7E71B
:1036C000FDF7BEFF0146F6E710B58CB000230446B7
:1036D000ADF80630206802AA0DF1060104F0E5F805
:1036E00008B1002005E002A92046FFF71FFD0028D1
:1036F000F0D00CB010BD30B58DB000230446ADF84D
:103700000630206802AA0DF1060104F0CEF808B1D7
:10371000002035E004F1840029F0FFF880BB082286
:10372000D4F884000DEB0201FFF7EEFC40BBBDF8BE
:10373000181004F1840029F035F808BBBDF82810F2
:1037400004F1840029F02EF8D0B9BDF82A1004F154
:10375000840029F027F898B99DF82510D4F8840042
:10376000FFF7D7FC60B99DF82610D4F88400FFF766
:10377000D0FC28B904F1840029F0EEF80028C0D06C
:103780000DB030BD37B50446002354F8840B8DF8D6
:1037900007300DF1070103F036FE851E9DF8070086
:1037A00008B903B030BD35F8021F204628F0FAFFF3
:1037B0000028F6D19DF80730013B8DF80730EDE782
:1037C00073B50646054656F8B40B03F016FEB5F879
:1037D000BC30B5F8BA209B1A9BB2012B01D800244B
:1037E00014E00DF10601304628F0D7FE044638B942
:1037F000BDF80610286803F0F2FD04460028E6D064
:1038000001235C2280212846FEF714F9204602B0ED
:1038100070BD90F88419D0F88400FFF77CBC30B5F7
:1038200089B0002304460193206802AA01A903F08D
:103830001CFF08B1002062E004F1840029F06DF85B
:1038400000285CD1D4F8840002A9FFF75FFC0028AF
:1038500055D19DF81810D4F88400FFF75AFC0028C1
:103860004DD19DF81A10D4F8840001F00101FFF742
:1038700052FC002843D19DF81930D4F88400C3F3DA
:103880008001C3F3C002490141EA021141EAD311A8
:10389000C3F3001241EAC201C3F3801241EA4201BC
:1038A000C3F3401241EA820143F3010341EA831169
:1038B000C9B2FFF72EFC10BB0146D4F88400FFF715
:1038C0002AFCE0B9BDF81C1004F1840028F06AFF5E
:1038D000A8B99DF81A30D4F88400C3F34001C3F3AB
:1038E0008002C90141EA821101F0C001FFF711FC19
:1038F00028B904F1840029F02FF8002894D009B0E9
:1039000030BD70B5ADF5027D0023064600933068EA
:1039100001AA694603F0B3FE08B1002038E006F1C1
:10392000840028F0FAFF98BB9DF80410D6F88400B4
:10393000FFF7EFFB60BB029906F1840028F041FF1E
:1039400030BB9DF80C200DF10D0106F1840028F02C
:10395000BCFFE8B99DF80A11D6F8840001F0010116
:10396000FFF7D9FBA0B99DF80B2143A906F184000C
:1039700028F0ABFF60B9BDF8041206F1840028F00E
:1039800011FF28B906F1840028F0E6FF0028BED018
:103990000DF5027D70BD90F8DA10D0F88400FFF7C5
:1039A000BABB00F1DA01B43028F0D8BD90F8DB10D2
:1039B000D0F88400FFF7AFBB00F1DB01B43028F092
:1039C000CDBDB0F8DC10843028F0ECBE00F1DC0195
:1039D000B43028F0E2BD7FB591F8783005460C464A
:1039E000002B40F06E8194F87930FBB105F1840032
:1039F00028F093FF002840F07D8141F21D5105F130
:103A0000840028F037FF002840F07481D4E90423B3
:103A100005F1840028F0F4FE002840F06B8105F1E8
:103A2000840028F099FF002840F0648194F87A30EF
:103A3000FBB105F1840028F070FF002840F05A81A6
:103A4000462105F1840028F015FF002840F052813E
:103A5000D5F88400102204F12001FFF755FB00285F
:103A600040F0488105F1840028F076FF002840F0FE
:103A7000418194F87B30F3B105F1840028F04DFFCB
:103A8000002840F03781442105F1840028F0F2FE3F
:103A9000002840F02F8104F1300105F1840028F066
:103AA00024FF002840F0268105F1840028F054FF0F
:103AB000002840F01F8194F87C30FBB105F18400B0
:103AC00028F02BFF002840F01581452105F18400E6
:103AD00028F0D0FE002840F00D81D5F8840008229F
:103AE00004F14101FFF710FB002840F0038105F1CC
:103AF000840028F031FF002840F0FC8094F87D30ED
:103B000073B3D4F84900D4F84D106B4603C30023B7
:103B100005F18400CDE9023328F0FFFE002840F0D3
:103B2000E980622105F1840028F0A4FE002840F01D
:103B3000E180D5F884006946FFF7E8FA002840F0F4
:103B4000D980D5F884004021FFF7E3FA002840F03F
:103B5000D18005F1840028F0FFFE002840F0CA80E3
:103B600094F87E30002B40F0C78094F87F30F3B19A
:103B700005F1840028F0D1FE002840F0BB803621FA
:103B800005F1840028F076FE002840F0B380B4F8F8
:103B9000581005F1840028F005FE002840F0AA80A6
:103BA00005F1840028F0D8FE002840F0A38094F8A6
:103BB0008030F3B105F1840028F0AFFE002840F01A
:103BC0009980212105F1840028F054FE002840F05E
:103BD000918094F85A10D5F88400FFF79AFA0028DB
:103BE00040F0888005F1840028F0B6FE002840F0FF
:103BF000818094F88130DBB105F1840028F08DFEDE
:103C0000002877D14B2105F1840028F033FE0028ED
:103C100070D1D5F88400102204F15E01FFF774FA28
:103C2000002867D105F1840028F096FE002861D1B4
:103C300094F882305BB304F16E000222694610F002
:103C40007FFB05F1840028F068FE002852D141F284
:103C50001F5105F1840028F00DFE00284AD1B4F868
:103C60006E1005F1840028F09DFD002842D19DF8DA
:103C70000010D5F88400FFF74CFAD8BB03F065FEBE
:103C8000022856D805F1840028F066FE90BB94F80F
:103C9000830078B305F1840028F03FFE50BB222159
:103CA00005F1840028F0E6FD20BB616F2846FEF791
:103CB00088F9F8B905F1840004B0BDE8704028F037
:103CC0004BBE843028F029FEA0B941F21C5105F109
:103CD000840028F0CFFD68B9D4E9002305F1840001
:103CE00028F08EFD30B905F1840028F035FE00285B
:103CF0003FF479AE04B070BD05F1840028F00DFEEC
:103D00000028F7D141F21E5105F1840028F0B2FDE0
:103D10000028EFD1616D05F1840028F052FD0028E4
:103D2000E8D105F1840028F017FE00283FF41DAF0C
:103D3000E0E79DF80110D5F88400FFF7EAF90028C4
:103D4000A0D0D7E710B5A2B004466946006803F0DA
:103D50007BFA69462046FFF73EFE22B010BD10B543
:103D6000A2B004466946006803F085FA6946204619
:103D7000FFF731FE22B010BD10B5C0B00446694651
:103D8000006803F066FA10B100238DF8FE309DF84C
:103D9000FE20D4F884006946FFF7B6F940B010BDA4
:103DA00010B5C0B004466946006803F069FA10B166
:103DB00000238DF8FE309DF8FE20D4F8840069467B
:103DC000FFF7A2F940B010BD2DE9F04F0D4685B0C8
:103DD00091460446882200212846DDF838809DF867
:103DE0003C709A462EF0BAF8B9F1000F02D00023C9
:103DF000C9F80030BAF1000F02D000238AF8003071
:103E0000B8F1000F02D00023C8F80030B4F8BA208F
:103E1000B4F8BC309A4201D1002025E104F1B4008D
:103E200028F076FC002840F01F8102A904F1B400BC
:103E300028F003FC002840F01781029B622B00F061
:103E4000DB8029D84B2B0AD8432B0FD8222B00F02C
:103E50009081362B00F00B81212B00F01C8104F1A6
:103E6000B40028F074FC0028D0D0FDE0443B072BC0
:103E7000F5D801A252F823F07D3F0000B93F0000C1
:103E8000333F00005F3E00005F3E00005F3E0000E9
:103E90005F3E0000C3400000A3F5A8531C3B0B2B62
:103EA000DDD80B2BDBD801A252F823F0DD3E000059
:103EB000073F0000434000000B410000BF410000ED
:103EC0005F3E00005F3E00005F3E00005F3E00007E
:103ED0005F3E00005F3E0000094200002FB1B4F8D1
:103EE000BA20B4F8BC309A4209D0294604F1B40093
:103EF00028F07FFB002840F0B7802881A8720123BA
:103F000085F87830ABE72FB1B4F8BC20B4F8BA30FC
:103F10009A420AD005F1100104F1B40028F069FBBF
:103F2000002840F0A1802883A876012385F8793005
:103F300095E72FB1B4F8BA20B4F8BC309A4219D042
:103F40000DF1060203A904F1B40028F0C1FB00281A
:103F500040F08A80BDF80630102B40F05381039B5F
:103F600005F1200203F1100153F8040B42F8040B91
:103F70008B42F9D1012385F87A3070E72FB1B4F87C
:103F8000BC20B4F8BA309A4212D003A904F1B400AC
:103F900028F080FB002867D103982EF02EF8102817
:103FA00000F23081421C039905F130002EF017F821
:103FB000012385F87B3052E72FB1B4F8BA20B4F86A
:103FC000BC309A4214D00DF1060203A904F1B400EA
:103FD00028F07EFB002847D1BDF80630082B40F0C2
:103FE0001181039A1368C5F841305368C5F845300C
:103FF000012385F87C3032E72FB1B4F8BA20B4F849
:10400000BC309A4219D0102203A904F1B40028F060
:104010002BFB48BB0DF1060104F1B40028F08EFA29
:1040200010BB9DF80630402B40F0EC80039A1368DB
:10403000C5F849305368C5F84D30012385F87D3007
:104040000DE74FB1B4F8BA20B4F8BC309A4203D1AE
:10405000012385F87E3002E705F1540104F1B40034
:1040600028F0AFFA0028F3D005B0BDE8F08F4FB1CB
:10407000B4F8BA20B4F8BC309A4203D1012385F8D1
:104080007F30ECE605F1580104F1B40028F085FA20
:104090000028F3D0E8E72FB1B4F8BA20B4F8BC3068
:1040A0009A420AD003A904F1B40028F047FA002884
:1040B000DAD19DF80C30A5F85A30012385F880300C
:1040C000CDE62FB1B4F8BA20B4F8BC309A4218D07B
:1040D0000DF1060203A904F1B40028F0F9FA002852
:1040E000C2D1BDF80630102B40F08C80039B05F147
:1040F0005E0203F1100153F8040B42F8040B8B42EB
:10410000F9D1012385F88130A9E62FB1B4F8BA209E
:10411000B4F8BC309A4226D005F16E0104F1B40027
:1041200028F03BFA00289FD103A904F1B40028F03D
:1041300005FA002898D103F008FC022817D9B4F832
:10414000BC20B4F8BA309A4211D00DF10D0104F13F
:10415000B40028F0F3F9002886D1022203A905F162
:104160006E0010F0A5F8012385F8823077E6012271
:10417000F4E72FB1B4F8BC20B4F8BA309A421AD0A0
:1041800000234FF0010B0FE003A904F1B40028F065
:10419000D5F900287FF468AF9DF80C301F2B31D87B
:1041A0006A6F0BFA03F31343B4F8BA206B67B4F8E1
:1041B000BC309A42E8D1012385F883304FE637B10D
:1041C000B4F8BA20B4F8BC309A423FF448AE0DF1CE
:1041D000060203A904F1B40028F07AFA00287FF45B
:1041E00043AFBDF80630FF2B0CD8B9F1000F02D059
:1041F000039AC9F80020BAF1000F3FF430AE8AF8F4
:1042000000302CE607202FE737B1B4F8BA20B4F815
:10421000BC309A423FF423AE102203A904F1B4004B
:1042200028F022FA00287FF41FAFB8F1000F3FF406
:1042300016AE039BC8F8003011E600BF10B500238E
:10424000A4B0CDE900331A4602A90446FFF7BCFD2D
:1042500018B9206802A903F001F824B010BD10B508
:104260000023A4B0CDE900331A4602A90446FFF7A3
:10427000ABFD18B9206802A903F007F824B010BDFF
:1042800070B5C2B0002306460DF1020201A9B43098
:104290000193ADF8023028F01BFA70B9BDF8024066
:1042A000FE2C0CD80199224602A82DF098FE306809
:1042B0008DF8064102A902F0D9FF42B070BD062078
:1042C000FBE770B5C2B0002306460DF1020201A95A
:1042D000B4300193ADF8023028F0FAF970B9BDF8A6
:1042E0000240FE2C0CD80199224602A82DF077FE40
:1042F00030688DF8064102A902F0CFFF42B070BDD0
:104300000620FBE710B50023A6B0CDE9003303AAD1
:104310000DF10B0304A90446FFF756FD40B9CDE9A2
:1043200000009DF80B30039A206804A902F0BFFF3B
:1043300026B010BD10B50023A6B0CDE9003303AA06
:104340000DF10B0304A90446FFF73EFD40B9CDE98A
:1043500000009DF80B30039A206804A902F0B1FF19
:1043600026B010BD10B504460846FDF769F941F2C4
:104370003E51C4F8C00904F1F000FEF7CEFE04F18E
:10438000E000BDE8104004F095BB0B46014618461E
:10439000FFF7E8BFD0F8C019843028F012BA000047
:1043A00010B5A6B004468822002104A82DF0D6FD41
:1043B0000DF10A0203A904F1B40028F089F960B9EB
:1043C000BDF80A30FD2B0AD8064A00920194039AE0
:1043D0002068DBB204A902F074FF26B010BD0620ED
:1043E000FBE700BF8B43000010B5A8B00123019389
:1043F00005AB009304AA0DF10F0306A90446FFF7CD
:10440000E3FC40B9059B0093049A9DF80F302068A7
:1044100024A902F047FF28B010BD10B5A8B00123B1
:10442000019305AB009304AA0DF10F0306A90446FE
:10443000FFF7CAFC40B9059B0093049A9DF80F3022
:10444000206824A902F038FF28B010BD1FB504462B
:10445000006803F0B5F9034688B1596800686A46F8
:1044600003C20023D4F884006946CDE90233FEF785
:104470004DFE20B9D4F884004021FEF74AFE04B076
:1044800010BD37B50446102201A9B43028F0ECF86D
:1044900070B90DF1030104F1B40028F04FF838B9F8
:1044A0009DF80330402B05D10199206803F08CF969
:1044B00003B030BD0720FBE710B50446006803F0E9
:1044C0007BF9014628B1D4F88400BDE81040FEF71E
:1044D0001DBE10BD10B50446006803F08FF90146FB
:1044E00028B1D4F88400BDE81040FEF70FBE10BD1F
:1044F00070B50546064655F8840B02F01CFF0446CD
:104500000CB9204670BD284628F007FA0028F9D1DA
:10451000D6F884002146FEF7F9FD0028F2D1217C6F
:10452000D6F88400FEF7F5FD0028EBD1A17C2846E3
:1045300041F3000128F045F90028E3D1A17C284689
:1045400041F3400128F03DF90028DBD1284628F04E
:1045500003FA0028D6D16469D2E730B589B00446A1
:1045600002A9B43028F08EF848BB06A904F1B400C3
:1045700027F0E4FF18BB694604F1B40028F021F8E5
:10458000E8B901A904F1B40028F01BF8B8B9019BFF
:1045900003221B1A18BF01238DF81920009A5B0013
:1045A000824218BF43F001039DF81A20206822F0D0
:1045B0000302134302A98DF81A3002F0C1FE09B0BC
:1045C00030BD37B50546102201A9B43028F04CF8AB
:1045D000044630B90199286802F0B7FE172818BFC1
:1045E0000446204603B030BD0221843028F014BABE
:1045F00010B50446006802F06FFE011E18BF0121CD
:10460000D4F88400BDE81040FEF785BD37B500231F
:1046100005460DF10701B4308DF8073027F09EFFF5
:10462000044640B99DF80730834214BF0321014678
:10463000286802F056FE204603B030BD70B505462E
:10464000064655F8840B02F085FE04460CB9204658
:1046500070BD284628F061F90028F9D1D6F8840009
:104660002146FEF753FD0028F2D1284628F074F9C0
:104670000028EDD12469E9E737B50546102201A9E4
:10468000B43027F0F1FF044630B90199286802F0F0
:1046900066FE182818BF0446204603B030BD37B563
:1046A0000546102201A9B43027F0DEFF044630B9D8
:1046B0000199286802F058FE172818BF04462046C2
:1046C00003B030BD10B50446006802F005FE431E7D
:1046D000DBB2042B34BF01460021D4F88400BDE8CE
:1046E0001040FEF716BD37B505460DF10701B43091
:1046F00027F024FF044640B99DF807104B1E032BFA
:1047000088BF0146286802F0ECFD204603B030BDAA
:1047100010B50446006802F031FE80F00101C9B214
:10472000D4F88400BDE81040FEF7F5BC37B500238F
:1047300005460DF10701B4308DF8073027F00EFF64
:10474000044630B99DF80710286881F0010102F095
:104750001AFE204603B030BD30B589B000230446B0
:104760000193206802AA01A902F084FF08B1002089
:1047700050E004F1840028F0D0F800284AD1D4F8A1
:10478000840002A9FEF7C2FC002843D19DF818104E
:10479000D4F88400FEF7BDFC00283BD19DF81C1026
:1047A000D4F88400C1F3C001FEF7B5FC90BB9DF8BE
:1047B0001C109DF81C3041F30101481C2CD04A1EEE
:1047C000514251418901C3F3800341EA4311D4F8B6
:1047D000840001F0E001FEF79CFCD8B90146D4F852
:1047E0008400FEF798FCA8B99DF81C10D4F884004A
:1047F000C1F30011FEF78FFC60B9BDF81A1004F187
:10480000840027F0CFFF28B904F1840028F0A4F831
:104810000028A6D009B030BDC021D4E730B585B09E
:104820000023044601AA02A9B4300293ADF8043073
:104830000393ADF8063027F054FF00BB0DF10602DC
:1048400003A904F1B40027F043FFC0B90346BDF843
:1048500004200299206802F0B1FD054670B10221E2
:1048600002F0D8FE2068294602F092FD38B9D4F84B
:1048700094390133C4F8943905B030BD0320D4F81D
:10488000A8390133C4F8A839F6E710B5044654F83E
:10489000840B02F0CAFC01462046BDE8104027F018
:1048A00081BF37B505460DF10601B43027F075FE1E
:1048B000044620B9BDF80610286802F0BBFC20466B
:1048C00003B030BD10B5044654F8840B02F07CFEF2
:1048D00001462046BDE8104027F064BF10B50446ED
:1048E00054F8840B02F04FFE01682046BDE81040EA
:1048F00027F067BF10B5044654F8840B02F043FE5E
:10490000C1682046BDE8104027F05BBF10B50446E3
:1049100054F8840B02F037FE01692046BDE81040D0
:1049200027F04FBF10B5044654F8840B02F02BFE5D
:1049300041692046BDE8104027F043BF10B504464A
:1049400054F8840B02F01FFE81692046BDE8104038
:1049500027F037BF10B5044654F8840B02F013FE5D
:10496000C1692046BDE8104027F02BBF10B50446B2
:1049700054F8840B02F007FE016A2046BDE810409F
:1049800027F01FBF10B5044654F8840B02F0FBFD5E
:10499000416A2046BDE8104027F013BF10B5044619
:1049A00054F8840B02F0EFFD816A2046BDE8104008
:1049B00027F007BF10B5044654F8840B02F0E3FD5E
:1049C000C16A2046BDE8104027F0FBBE10B5044682
:1049D00054F8840B02F0D7FD816B2046BDE81040EF
:1049E00027F0EFBE10B5044654F8840B02F0CBFD5F
:1049F00041682046BDE8104027F0E3BE10B50446EC
:104A000054F8840B02F0BFFD81682046BDE81040D9
:104A100027F0D7BE10B5044654F8840B02F0B3FD5E
:104A2000C16B2046BDE8104027F0CBBE10B5044650
:104A300054F8840B02F0A7FD416C2046BDE81040FD
:104A400027F0BFBE10B5044654F8840B02F09BFD5E
:104A5000016D2046BDE8104027F0B3BE10B50446F6
:104A600054F8840B02F08FFD416D2046BDE81040E4
:104A700027F0A7BE10B5044654F8840B02F083FD5E
:104A8000816D2046BDE8104027F09BBE10B504465E
:104A900054F8840B02F077FDC16D2046BDE810404C
:104AA00027F08FBE10B5044654F8840B02F06BFD5E
:104AB000016E2046BDE8104027F083BE10B50446C5
:104AC00054F8840B02F05FFD416E2046BDE81040B3
:104AD00027F077BE10B5044654F8840B02F053FD5E
:104AE000816E2046BDE8104027F06BBE10B504462D
:104AF00054F8840B02F047FDC16E2046BDE810401B
:104B000027F05FBE10B5044654F8840B02F03BFD5D
:104B1000816C2046BDE8104027F053BE10B5044616
:104B200054F8840B02F02FFDC16C2046BDE8104004
:104B300027F047BE10B5044654F8840B02F023FD5D
:104B4000016F2046BDE8104027F03BBE10B504467B
:104B500054F8840B02F017FD416F2046BDE8104069
:104B600027F02FBE10B5044654F8840B02F00BFD5D
:104B7000816F2046BDE8104027F023BE10B50446E3
:104B800054F8840B02F0FFFCC16F2046BDE81040D2
:104B900027F017BE10B5044654F8840B02F0F3FC5E
:104BA000D0F880102046BDE8104027F00ABE10B5AE
:104BB000044654F8840B02F0E6FCD0F8841020463A
:104BC000BDE8104027F0FDBDD0F89419843027F0DF
:104BD000F8BDD0F89819843027F0F3BDD0F8A819A3
:104BE000843027F0EEBDD0F89C19843027F0E9BD61
:104BF000D0F8A019843027F0E4BDD0F8A41984308F
:104C000027F0DFBDD0F8B819843027F0DABDD0F82E
:104C1000B019843027F0D5BDD0F8AC19843027F016
:104C2000D0BD10B5044654F8840B02F0B0FE016804
:104C30002046BDE8104027F0C4BD10B5044654F826
:104C4000840B02F0A4FE41682046BDE8104027F026
:104C5000B8BD10B5044654F8840B02F098FE816884
:104C60002046BDE8104027F0ACBD10B5044654F80E
:104C7000840B02F08CFEC1682046BDE8104027F08E
:104C8000A0BD10B5044692B054F8840B694602F0FA
:104C9000E5FCBDF80010204627F084FD002859D11E
:104CA000BDF80210204627F07DFD002852D1BDF846
:104CB0000810204627F076FD00284BD1BDF80A10D9
:104CC000204627F06FFD002844D1BDF81010204683
:104CD00027F068FDF0BBBDF81210204627F062FDFA
:104CE000C0BBBDF81810204627F05CFD90BBBDF896
:104CF0001A10204627F056FD60BBBDF82010204654
:104D000027F050FD30BBBDF82210204627F04AFDA9
:104D100000BBBDF82810204627F044FDD0B9BDF8EF
:104D20002A10204627F03EFDA0B90146204627F074
:104D300039FD78B90146204627F034FD50B9BDF859
:104D40003010204627F02EFD20B9BDF83210204645
:104D500027F028FD12B010BD38B5044654F8840B76
:104D600002F011FC0546204627F0D7FD002840F050
:104D7000E0802968204627F024FD002840F0D980F3
:104D80006968204627F01DFD002840F0D280A96800
:104D9000204627F016FD002840F0CB80E968204629
:104DA00027F00FFD002840F0C4802969204627F035
:104DB00008FD002840F0BD806969204627F001FD0C
:104DC000002840F0B680A969204627F0FAFC0028A8
:104DD00040F0AF80E969204627F0F3FC002840F05E
:104DE000A880296A204627F0ECFC002840F0A1802A
:104DF000696A204627F0E5FC002840F09A80A96AFD
:104E0000204627F0DEFC002840F09380E96A204627
:104E100027F0D7FC002840F08C80A96B204627F0B3
:104E2000D0FC002840F08580E96B204627F0C9FCC3
:104E300000287ED1296C204627F0C3FC002878D1B9
:104E4000296B204627F0BDFC002872D1696B2046F3
:104E500027F0B7FC00286CD1204627F07DFD002804
:104E600067D1204627F059FD002862D1696C2046A1
:104E700027F0A7FC00285CD1A96C204627F0A1FCF4
:104E8000002856D1E96C204627F09BFC002850D121
:104E9000296D204627F095FC00284AD1696D2046EF
:104EA00027F08FFC002844D1A96D204627F089FC0B
:104EB00000283ED1E96D204627F083FC002838D138
:104EC000296E204627F07DFC98BB696E204627F0AE
:104ED00078FC70BBA96E204627F073FC48BBE96ED6
:104EE000204627F06EFC20BB296F204627F069FC86
:104EF000F8B9696F204627F064FCD0B9A96F204645
:104F000027F05FFCA8B9E96F204627F05AFC80B96A
:104F1000D5F88010204627F054FC50B9D5F88410FD
:104F2000204627F04EFC20B92046BDE8384027F047
:104F300013BD38BD08B5006802F029FB002008BD8C
:104F400038B50446006802F02DFD054600B9FEE7BD
:104F5000018804F1840027F025FC88BB698804F1EE
:104F6000840027F01FFC58BBA98804F1840027F0B7
:104F700019FC28BBE98804F1840027F013FCF8B978
:104F8000298904F1840027F00DFCC8B9698904F16E
:104F9000840027F007FC98B9A98904F1840027F060
:104FA00001FC68B9E98904F1840027F0FBFB38B9FA
:104FB000B5F8481004F18400BDE8384027F0F2BB92
:104FC00038BD08B5006802F0F2FC002008BD38B515
:104FD0000446006802F0DBFC054600B9FEE704F178
:104FE000840027F09AFC38BB296804F1840027F07C
:104FF000E8FB08BBA96804F1840027F0E2FBD8B9FC
:1050000004F1840027F0A8FCB0B904F1840027F073
:1050100084FC88B9696804F1840027F0D2FB58B990
:10502000E96804F1840027F0CCFB28B904F184007E
:10503000BDE8384027F090BC38BD08B5006802F0E4
:10504000AAFC002008BD10B50446006802F075FBFC
:10505000C0F34001C0F3800200F00100FEF760F8E9
:105060000146D4F88400BDE81040FEF752B813B5ED
:10507000002304460DF10701B4308DF8073027F006
:105080005DFA70B99DF807302068C3F34002C3F39E
:10509000C0019B0041EA420103F00403194302F0FE
:1050A0005BFB02B010BD10B5044654F8840B02F04F
:1050B00009FB01462046BDE8104027F082BB37B50A
:1050C0000023054601A9B430019327F07AFA04467B
:1050D00018B90199286802F0FAFA204603B030BDE9
:1050E00010B5044654F8840B02F0FEFB014620463E
:1050F000BDE8104027F056BB90F88519D0F8840021
:10510000FEF709B800F68511B43027F027BA30B59C
:1051100085B0002304460293ADF804300393ADF844
:10512000063001AA4FF4807302A9B430ADF8003004
:1051300027F0D7FA20BB0DF1060203A904F1B40051
:1051400027F0C6FAE0B9BDF80420029920686B4642
:1051500002F034F9054690B1022102F05BFA012118
:10516000284602F05CFA2068294602F011F938B9A5
:10517000D4F898390133C4F8983905B030BD03200C
:10518000D4F8A8390133C4F8A839F6E710B50446B5
:10519000006802F0FCF9206802F0FDFB206802F0D4
:1051A00006FC2046FCF73CFB002010BD13B504466E
:1051B0000DF10601B43027F0F0F920B9BDF8061062
:1051C000206802F00CF902B010BD37B505460DF1AC
:1051D0000601B43027F0E1F9044638B9BDF80610ED
:1051E000286802F003F9172818BF0446204603B0C8
:1051F00030BD0021843027F03DBB2DE9F04106464B
:105200000D46002900F0858091F83910332301F014
:105210000F08C1F3001707228021843027F0DBFB41
:1052200000286FD195F83610D6F88400FDF771FF8D
:10523000002867D195F83710D6F88400FDF769FF8C
:1052400000285FD106F1840027F067FB002859D1C0
:10525000D6F8840008222946FDF756FF002851D1D0
:105260004FF6FF7106F1840027F09CFA002849D11F
:10527000698E06F1840027F095FA002842D195F84E
:105280003810D6F88400FDF744FFD8BB06F184003F
:1052900027F062FBB0BB06F1840027F03EFB88BB21
:1052A000032106F1840027F0E5FA58BBF90041EA32
:1052B0000811D6F8840001F0F801FDF72AFF08BBB9
:1052C00005F1080106F1840027F00FFBD0B9082290
:1052D00005F1190106F1840027F0F7FA90B995F865
:1052E000212005F1220106F1840027F0EEFA48B9E9
:1052F00006F1840027F030FB20B906F1840027F086
:105300004DFB80B10B22002106F1F00000F0E2F924
:1053100003E03021F030FDF700FF06F1E000BDE8CA
:10532000F04103F0C7BBBDE8F0810B4601461846CB
:10533000FFF763BF70B504460D46F1B1392307226C
:105340008021843027F047FB80B92978D4F8840085
:10535000FDF7DFFE50B96978D4F88400FDF7D9FE77
:1053600020B904F1840027F019FB80B10B22002141
:1053700004F1F00000F0AEF903E03021F030FDF769
:10538000CCFE04F1E000BDE8704003F093BB70BDBB
:105390000B4601461846FFF7CDBFF8B50446084650
:1053A0000F4602F033F906220646C0F1730380214E
:1053B00004F1840027F00FFBC8B9384602F020F949
:1053C000014604F1840027F0EDF980B9D4F8840097
:1053D000394626F0BEFF50B904F1840027F0DEFA0A
:1053E00028B92EB1D4F89C390133C4F89C39F8BDE2
:1053F000D4F8A0390133C4F8A039F8E7F8B5074666
:1054000007F68C1002F024F9054608B9044610E0AE
:10541000294607F68C1002F019F929463846FFF79D
:10542000BCFF04460028EBD0294607F68C1002F09A
:105430000AF92046F8BD38B504460D46D1B10846F4
:1054400002F0DEF8B0F5A26F04D92846BDE8384076
:1054500002F0D4B8294604F68C1002F0F1F894F862
:105460000A2994F80B399A4204D12046BDE8384005
:10547000FFF7C4BF38BD0B4601461846FFF7DBBF38
:10548000F8B590F8873906460D461746002B62D0CE
:10549000712306228021843027F09DFA00285AD1FA
:1054A000A98806F1840027F07DF9002853D1AA8845
:1054B0002968D6F88400FDF727FE00284BD1002F7D
:1054C00044D195F91510D6F88400C9B2FDF721FE34
:1054D000002840D1D6F884008021FDF71AFED0BB09
:1054E000394606F1840027F05DF9A0BB06F184007F
:1054F00027F013FA78BBA979D6F88400FDF709FEE6
:10550000014640BB07B9A97DD6F88400FDF701FE2E
:1055100008BBEFB1D5E9082306F1840027F070F944
:10552000C8B906F1840027F017FAA0B906F1840083
:1055300027F0F3F978B906F1840027F00DFA50B995
:1055400006F18400BDE8F84027F028BA7F21BAE7C9
:10555000D5E90223E0E7F8BD13460A46014618469E
:10556000FFF78EBF90F88719D0F88400FDF7D3BD00
:1055700037B504460DF10701B43026F0EFFF0546BC
:1055800068B99DF8073094F887299A4207D02068B7
:1055900084F8873933B10549224601F0D7FF284600
:1055A00003B030BD2A462946F7E700BF5955000031
:1055B0000020704702460249006802F0FDB900BFB2
:1055C000DD55000010B54C210446F030FDF7A5FD77
:1055D00004F1E000BDE8104003F06CBAFFF7F2BF41
:1055E000D1F8E8300343C1F8E83001F1E00003F0FE
:1055F00061BA0000D0F8E8302DE9F0410446002BF4
:105600005AD05B072DD590F8853953B3006802F066
:1056100051F9012807D9002384F88539492104F17B
:10562000F000FDF77AFD206802F044F9042818D153
:10563000206802F08CF9A0B1D4F8E830254623F0B8
:10564000800355F8F00BC4F8E830002102F06DF942
:1056500042212846FDF761FD68220021284600F01E
:1056600039F81A4E192504F1F007013D02D1C4F8AA
:10567000E85021E0D6F80080D4F8E83018EA030FAB
:1056800001D10836F1E77168522917D03846FDF785
:1056900044FDB8F5007F07D15A213846FDF73DFD9E
:1056A0005B213846FDF739FDD4F8E83023EA0803DA
:1056B000C4F8E830002BE4D1BDE8F08194F88939D2
:1056C000002284F88929002BE0D1E2E7E05B0300A7
:1056D0001F20704730B5184C002325688D4224D117
:1056E0006568954221D1D0E90225C3F1200405FA6D
:1056F00004F4A3F12001DA40224325FA01F10A4320
:1057000012F0010FC3F12004A3F120020CD10121FA
:1057100021FA04F401FA02F222439940D0E900434D
:105720000C431343C0E9004330BD0133DBB21F2BF0
:1057300004F10C04D1D1F7E7A05C03002DE9F0419E
:1057400000231E4F1D464FF0010C97F808E0BEF1F4
:10575000000F20D03C688C421DD1A3F12004C3F17E
:1057600020082CFA08F80CFA04F444EA0804D0E9FA
:1057700002650CFA03F8BAB146EA08062543C0E907
:105780000265D0E9006526EA080625EA0405C0E9B5
:10579000006531B9754601331F2B07F10C07D4D1D1
:1057A0004DB10020BDE8F08126EA080625EA04058F
:1057B000C0E90265EDE70720F4E700BFA05C030045
:1057C00030B5104B00221C7A9CB11C688C4210D161
:1057D000D0E90235C2F12004A2F1200123FA02F03F
:1057E00005FA04F4204325FA01F1084300F0010012
:1057F00030BD0132D2B21F2A03F10C03E3D10020E5
:10580000F6E700BFA05C03001C4B420B42EAC1421A
:1058100070B54D0BA2FB034203FB0522240F43F698
:10582000095344EA0214A4FB0365120F03FB02555B
:10583000831B134861EB050198424FF0000088413B
:1058400005D2104B104A114890212CF0BBF9104E94
:1058500040F23140584306FB0100A3FB0636013BF2
:10586000304447F6FF7340EB0300520242EAD45241
:10587000C00B6402001942F1000170BDD07B6308C7
:10588000452C1600EA310300145E0300F8310300D2
:105890007B2DE8BD00F1402000F50030002382B0F0
:1058A000036003680193019B02B0704737B5254937
:1058B0000122D1E84F3F8DF807309DF8073063B1E2
:1058C000BFF32F8F204BD3F80421204B12B91A6855
:1058D000D20734D5186802302EE0C1E8432F002BE0
:1058E000E7D1194B0222C3F80823BFF35F8FD3F827
:1058F0000431164A4BB1136801331360BFF35F8F55
:105900004FF48270FFF7C6FF01230F4C1068022589
:10591000C4F80453BFF35F8F00240C705BB11368AD
:10592000D90705D40A4B0B4A0B48EA212CF04AF957
:105930001368013313600130400803B030BD1868AC
:10594000FAE700BF50180020004002405418002021
:10595000693203002F5E0300813203002DE9F0411C
:1059600080460E46FFF7A2FF0746BFF35F8F084D44
:10597000D5F80445BFF35F8FFFF798FFC8F8000024
:10598000874218BFD5F804453460BDE8F08100BFF8
:105990000040024037B5044601A96846FFF7DEFF24
:1059A000DDE9003543F6095240F2FF100021E5FB26
:1059B0000201400A064A40EAC150490AE3FB0201DB
:1059C00024B94FF47A7200232BF052FF03B030BD9C
:1059D0000080841EF8B5194D05EB0013044606013E
:1059E0001889FFF757FF0F462046FFF7D3FF37B957
:1059F000134B3344D3E90223904299411CD33544DD
:105A0000104B6A68C3F84823022CEA68C3F80823DD
:105A10000AD0032C0CD00A4A012393550A4A13706A
:105A2000BDE8F84001F059B8BDE8F84028F0FAB8F0
:105A3000BDE8F84027F052BBF8BD00BF445E03004C
:105A400000180020004002404018002008B5094B13
:105A5000020103EB0010084B4168C3F84813C1680A
:105A6000C3F808130089FFF715FF044B0021995470
:105A700008BD00BF445E0300004002400018002043
:105A8000F8B5264D05EB021C17461401244ADCF834
:105A90000C60C2F80863DCF80460C2F84463D3E920
:105AA0000023904234D9821A002A00DA013B0022F6
:105AB000401843EB4201101837B94FF47A7303FBD7
:105AC00001F2A0FB03011144FFF79EFE43F60952C9
:105AD00020F07F46A0FB020302FB013140F2FF13DE
:105AE000C01841F10001400A40EAC150490A27B9F3
:105AF0004FF47A7200232BF0BBFE0A4B084A234472
:105B0000C3E902012B5903F5A87342F82360F8BDDD
:105B1000CDD2121A002AB8BF0133C8E7445E030091
:105B20000040024000180020F0B585B006460F4640
:105B3000684601A91446FFF711FFDDE9003543F679
:105B4000095240F2FF100021E5FB0201400A254AFC
:105B500040EAC150490AE3FB020124B94FF47A72CA
:105B600000232BF085FECDE9020102AB2246394627
:105B70003046FFF785FF1C4BD3F804359D4203D018
:105B800001A96846FFF7EAFEDDE9003243F6095550
:105B9000023240F2FF100021E2FB0501400A114AE7
:105BA00040EAC150490AE3FB020124B94FF47A727A
:105BB00000232BF05DFE0D4B03EB0413D3E902230E
:105BC0009042994106D301212046FFF703FF40BFD1
:105BD00005B0F0BD064B03EB0413DA68024BC3F8C3
:105BE0000423F5E70080841E0040024000180020D6
:105BF000445E030038B51E48402200212CF0AEF967
:105C00001C4B002018601C4B18701C4B00240025F6
:105C1000C3E900452BF0B2FA2BF0EEFA0028FBD0D6
:105C2000174B1849C02283F824231022C3F884217B
:105C30005A60154A0023C2F808354FF48270FFF706
:105C400029FE0223C2F844330424C2F8043308892D
:105C5000FFF720FE4B68C2F84833013CCB68C2F81E
:105C6000083301F11001F2D10123136038BD00BFE8
:105C70000018002054180020501800204818002058
:105C800000E100E0445E0300004002402DE9F041E5
:105C900000250B4E0746A8460A4C86F80080237C58
:105CA0001BB13846257403F03BF823781BB1384606
:105CB000257002F0FFFF3378002BEDD1BDE8F081B5
:105CC00040180020001800200120FFF763BE08B52F
:105CD000FFF7FAFF4FF47A7200232BF0C9FD08BDDD
:105CE000084611460022FFF71FBF0020FFF7AEBE97
:105CF00008B5FFF7E9FF08BD084611460122FFF786
:105D000013BF0120FFF7A2BE70477047044B4FF44A
:105D10008022C3F80823BFF34F8FBFF36F8F704704
:105D200000400240024B4FF48022C3F80423704726
:105D300000400240FFF7DCBF1F2070470222FFF740
:105D4000F3BE0220FFF782BE7FB5134E134D6946A6
:105D500001A8FFF703FEDDE9004343F6095140F2D5
:105D6000FF100022E4FB0102400A40EAC250520A3E
:105D7000E3FB0602CDE9020202AB03223E21FFF75C
:105D80007FFE4FF40023C5F80433D5F804359C4258
:105D9000DDD104B070BD00BF0080841E0040024011
:105DA00037B5044603200D46FFF7F4FD6B46CDE9F9
:105DB0000001032229462046FFF762FE034B4FF401
:105DC0000022C3F8042303B030BD00BF00400240EE
:105DD0000320FFF73BBE0000144A1549012310B50C
:105DE000536004240889FFF755FD4B68C2F8483317
:105DF000013CCB68C2F8083301F11001F2D1022353
:105E0000C2F808334FF48270C2F84833FFF742FDFE
:105E1000FFF7DEFF074B1022C3F88420C3F884216C
:105E200083F82443BDE810402BF0D2B90040024073
:105E3000445E030000E100E0004870474C4102402E
:105E4000014B986B704700BF00180020114BD3F82E
:105E5000042170B522B10222C3F80823FFF726FD02
:105E60000D4D0C4E0024D6F80423EB681A420AD0DC
:105E70002B8903F1402303F500331B681BB100217C
:105E8000E0B2FFF7A7FD0134042C05F11005EAD1BB
:105E900070BD00BF00400240445E0300FFF714BF26
:105EA00028207047704770474FF08043044AD3F86A
:105EB000001411604FF0FF32C3F80024704700BF98
:105EC0005C1800207047000008B501F01AF80A4B72
:105ED000187018B1094B04221A6008BDBFF34F8F28
:105EE0000749084BCA6802F4E0621343CB60BFF372
:105EF0004F8F00BFFDE700BF581800205C1800203E
:105F000000ED00E00400FA050B4B1B68D9070BD429
:105F10009A070BD459070BD41A070BD413F4F81FA4
:105F200014BF0620002070470120704708207047EA
:105F300002207047032070475C1800207047000063
:105F40000123094A82B003FA00F052E8003F0193AE
:105F5000019B23EA00030193019B42E800310029E1
:105F6000F3D102B0704700BFA8180020074A82B0E2
:105F700052E8003F0193019B23F001030193019B31
:105F800042E800310029F3D102B07047A818002080
:105F90000123094A82B003FA00F052E8003F01935E
:105FA000019B03430193019B42E800310029F4D196
:105FB00002B000F092BD00BFA8180020F42382B008
:105FC0000B70CE234B7036238B704FF080531A6EBC
:105FD0005B6EC1F80330CA7102B0704707B501A803
:105FE000ADF8041027F0FFF803B000BD054B01F138
:105FF000080010F8012D03F8012B8842F9D127F091
:10600000F4B800BF0819002007B501A8ADF80410C6
:1060100027F0EDF803B000BD124B012210B51A7045
:10602000114B7F221A70114B114A1A60114ADA6023
:10603000114A00231370114A1C4642F823400A33C8
:10604000A02BFAD110227F210D482BF087FF0D489D
:10605000282200212BF082FF0B4B1C60BDE8104072
:1060600027F0D4B8391C0020B71800209019002060
:1060700011190020F8180020381C0020B819002041
:10608000B8180020D0180020A018002008B527F06C
:1060900001F927F0E0F8024B00221A6008BD00BFAA
:1060A000A818002008B50E4B1B78A3B927F0E6F816
:1060B0000238052808D8DFE800F0031005100505B0
:1060C000012008BD0320FCE7064B074A07484FF4B0
:1060D000D3712BF077FD0020F3E70220F1E700BF3A
:1060E000391C0020DE420300365F0300C13203008A
:1060F000034B1A7812B10020187070470D207047BA
:10610000391C002010B5084C23784BB9FFF7CAFFA3
:10611000012803D0054B1B68DB0703D5012323703F
:10612000002010BD0D20FCE7391C0020A81800201D
:1061300008B527F0B2F828B900F065FEFFF716FFA2
:10614000002008BD0020FFF711FFFFF721FFF7E750
:106150000B68F7B58A8803F8012C07460C4627F030
:106160008DF8022801D100F04DFE204600F01FFD01
:1061700090B1204600F022FD70B1237F9B070BD425
:106180001E4B2046197800F035FD1D4B196820463E
:106190004A1C1A6000F030FD6369A07953B125688C
:1061A000009022690121681E27F090F818B300259D
:1061B000012613E026F0FDFF257F15F0040507D02A
:1061C000207E27F0DCF82068013827F0DAF8EEE7C7
:1061D00020682946013827F06EF80646FFF7C6FE0C
:1061E000384621460AF0CFFF16B90220FFF7D0FE4D
:1061F000284603B0F0BD0D25DAE700BF9C1800204B
:10620000A4180020004870479019002008B5064BDC
:106210004FF4206043F00103984727F081F8BDE870
:10622000084027F07FB800BF305F0300FB207047B5
:1062300027F088B8084627F087B8084627F086B8C0
:1062400007B5ADF8041001A8002127F081F8002857
:106250000CBF0320002003B000BD08B50846012193
:1062600027F076F800280CBF0320002008BD07B5F2
:10627000ADF8041001A8002127F072F800280CBF27
:106280000A20002003B000BD08B50846012127F010
:1062900067F800280CBF0A20002008BD002027F066
:1062A00062B8012027F05FB84FF47A7310B55A43F3
:1062B0000A4C0B4B226008461970FFF757FE26F078
:1062C00078FF206827F00BF820B10520FFF738FE93
:1062D000002010BD0520FFF75BFEF9E7B018002095
:1062E000AD18002010B50C4621B126F075FF2070C6
:1062F000002010BD0720FCE713B50C4661B101A8D2
:1063000027F03BF8054A9DF8053012785E3B9B1A52
:106310002370002002B010BD0720FBE7B618002054
:1063200013B50A4B1B78C81840B210F15E0F0BDB97
:106330000024019426F061FF8DF8050001A827F0E4
:1063400015F8204602B010BD0720FBE7B618002064
:1063500021B1034B1B780B7000207047072070475A
:10636000B6180020F7B50B4C064601A80F4694F965
:10637000005027F002F89DF80530227827705E3B28
:106380009B1A59B23046FFF7CBFF08B125700720A2
:1063900003B0F0BDB6180020F8B50026404C054605
:1063A000374623684BB12846002221460AF0E2FE18
:1063B00020682760013826F097FF0136102E04F17F
:1063C0002804EED1374C23689B0713D5364E0120A5
:1063D000FFF7B6FD3268354928460023002A18BF6A
:1063E00032460AF0D9FE306820B1013826F07CFF31
:1063F0000023336023685F0708D50220FFF7A0FD64
:106400002A490F23002228460AF0C6FE23681E07E9
:1064100008D50320FFF794FD24490E2300222846C7
:106420000AF0BAFE2368D80608D50420FFF788FDD5
:106430001F4B00211A7828460AF09CFE2368590653
:1064400008D50620FFF77CFD1A4B284693F900106B
:106450000AF0AEFE2368DA0708D526F01EFF0546CF
:10646000A8B900F0D0FC2846FFF76AFD0025236894
:106470009B0611D5104B187826F09BFE0F4B186821
:1064800026F02DFF28B9BDE8F84000F026BB012515
:10649000EDE70520FFF754FD002DF4D1F8BD00BF56
:1064A000B8190020A8180020D0180020901900204A
:1064B000381C0020AC180020AD180020B0180020B7
:1064C0002DE9F84F2E4C984606468A4693460027FB
:1064D000282303FB07F909EB040554F809100029E8
:1064E00040D1282228462BF039FD731C44F809308E
:1064F0003378AB8085F815A085F816B026F068FED5
:10650000A8717278DFF8949012F0200234D1282319
:1065100003FB07440027E37D62F30003E375327851
:106520004046394626F06CFEC4E90201737889F8CA
:10653000007013F0200F134E0ED0284600F02CFBF5
:1065400050B1E37D327862F34103E3750E4B1B6873
:1065500023610E4B1B78237500233370BDE8F84F81
:1065600000F0BBBA0137102FB3D1094B094A0A48D2
:1065700040F2C6312BF026FB99F80020C7E700BF98
:10658000B819002068180020641800206018002046
:1065900001330300095F0300C1320300C818002063
:1065A00008B5431E092B1AD8DFE803F0200522178F
:1065B00017171720171711230F4A104913700023BC
:1065C0000B700F4908280B7001D0052812D11370E9
:1065D0000020BDE80840FFF7DBBC0123ECE7094BD6
:1065E000094A0A4840F20A412BF0ECFA1223E3E789
:1065F0001623E1E70420ECE7381C0020C81800202F
:1066000068180020DE420300EF5E0300C132030081
:1066100070B54378254A264EC3F3001100241B07AA
:106620008AB00546117034702FD5222221460DF113
:1066300006002BF093FC6B1C009368462B78ADF89A
:10664000043000F0CBFA0546684600F0B7FAE0B136
:10665000DDB1184B1B789D4219D1174A1368591C9C
:106660001160164A164C02922360164B29461D7083
:1066700068460123337000F0BDFA2168684600F0D7
:10668000BBFA1149684600F085FA0AB070BD5A1E7F
:10669000954205D10D4A1368591C11600C4AE1E777
:1066A00001339D42F1D10B4A2346DBE7C818002095
:1066B000681800209C180020A41800207C180020D6
:1066C000641800206018002008190020A01800207D
:1066D0008C1800206C1800202DE9F0419046134AD8
:1066E00090420D461F4606D0114B124A124840F206
:1066F00059412BF067FA114C29B92160BDE8F041EE
:106700000120FFF745BC0E46069816F8012B002124
:1067100026F076FDC4E9020126602B78A38084F878
:106720001580A77526F054FDA071E7E71019002029
:1067300017330300CA5E0300C1320300D0180020E3
:1067400008B5104B984206D00F4B104A40F26F41EB
:106750000F482BF037FA072908D8012303FA01F173
:1067600011F0D20F07D111F02C0F09D1094B074AB4
:1067700040F28141ECE70220BDE80840FFF708BC89
:106780000320F9E71019002017330300AF5E030060
:10679000C1320300DE42030008B526F02AFD034B98
:1067A0001870BDE808400620FFF7F2BBAC180020C7
:1067B0006FF06300704700000F4B984210B506D091
:1067C0000E4B0F4A0F484FF493612BF0FBF90E4C20
:1067D000204600F0ECF970B1204600F0EFF950B11E
:1067E000237FDB0607D4094BA36020460849BDE898
:1067F000104000F0CFB910BD10190020173303006E
:10680000995E0300C1320300901900207C1800201B
:10681000081900207047704700F046BFFFF73EBBE5
:106820002DE9F0419DF82080DDE9065417461E460B
:10683000B8F1000F06D0164B164A40F2E94116484F
:106840002BF0C0F90BB105B124B9144B114A40F239
:10685000EA41F4E740462AF053FC114B1F7096E8DA
:106860000F00104F104E87E80F0095E80F0086E8E4
:106870000F0094E80F000D4D85E80F000C4B1A68CF
:106880000C4B40461A60BDE8F0412AF03BBC00BF0B
:106890002F330300845E0300C1320300533303002F
:1068A0009C1800208C1800207C1800206C180020F8
:1068B000A4180020A018002010B500200C462AF0D3
:1068C0001FFC034B00201C60BDE810402AF01ABCDE
:1068D000A418002010B500200C462AF011FC054B2E
:1068E0001A68A24238BF1C600020BDE810402AF0A0
:1068F00009BC00BFA418002008B5FFF7D1FAC0F307
:10690000470008BD14207047A0F10B030F2B9DBF5B
:10691000024B1B1813F90B0C7F207047B81800208E
:1069200008B5FFF7F1FF074B93F900307F2B04D038
:106930008342A8BF034658B208BD7F2808BF002085
:10694000FAE700BFB718002010B508460C4626F03D
:1069500030FC26F093FC022801D100F053FA2046C7
:10696000FFF7DEFF26F036FC26F09FFCFFF7FEFA6D
:1069700000280CBF0D20002010BD70B508461E4633
:106980000C46FFF7CDFF154626F024FC2346324681
:106990004FF47A71A5F57A7026F09FFC80F0010023
:1069A000FFF7E4FAC0B270BD10B50C4626F010FC3B
:1069B0007F2C07D0044B1C70FFF7B2FF26F00AFCB7
:1069C000002010BD0720FCE7B7180020A1F10B0341
:1069D0000F2B10B50C460DD8074B0B4403F80B2CAE
:1069E00026F0F6FBA04203D1FFF79AFF26F0F2FB58
:1069F000002010BD0720FCE7B818002021B1034B90
:106A00001B880B800020704707207047B4180020B7
:106A10007047000008B5034B08461980FFF7F8FFE0
:106A2000002008BDB418002010B50C4C00F0E9F9A6
:106A300000F05EF8FFF72AFBFFF744FA23780BB962
:106A4000FFF731FA207800F056FA00F079F9FFF7F5
:106A5000C3F9BDE8104000F0D9B900BF58180020B4
:106A600010B5124C23780BB1FFF7DEFF104B01225B
:106A7000C3F840252AF06AFB00F0C6F9FFF7BAF820
:106A800000F018F923780BB9FFF70CFA207800F022
:106A90002DFAFFF709FAFFF7BFFA00F01FF800F030
:106AA000AFF9FFF7FFF90023237010BD581800203D
:106AB00000E00140014B1878704700BF58180020D3
:106AC00010B50446FFF768FC00F019FA00F016F85C
:106AD0002046BDE81040FFF7D9B87047034B0022AD
